{
  "contractName": "Ownable",
  "abi": [
    {
      "inputs": [],
      "stateMutability": "nonpayable",
      "type": "constructor"
    },
    {
      "anonymous": false,
      "inputs": [
        {
          "indexed": true,
          "internalType": "address",
          "name": "previousOwner",
          "type": "address"
        },
        {
          "indexed": true,
          "internalType": "address",
          "name": "newOwner",
          "type": "address"
        }
      ],
      "name": "OwnershipTransferred",
      "type": "event"
    },
    {
      "inputs": [],
      "name": "_owner",
      "outputs": [
        {
          "internalType": "address",
          "name": "",
          "type": "address"
        }
      ],
      "stateMutability": "view",
      "type": "function"
    },
    {
      "inputs": [],
      "name": "owner",
      "outputs": [
        {
          "internalType": "address",
          "name": "",
          "type": "address"
        }
      ],
      "stateMutability": "view",
      "type": "function"
    },
    {
      "inputs": [],
      "name": "isOwner",
      "outputs": [
        {
          "internalType": "bool",
          "name": "",
          "type": "bool"
        }
      ],
      "stateMutability": "view",
      "type": "function"
    },
    {
      "inputs": [],
      "name": "renounceOwnership",
      "outputs": [],
      "stateMutability": "nonpayable",
      "type": "function"
    },
    {
      "inputs": [
        {
          "internalType": "address",
          "name": "newOwner",
          "type": "address"
        }
      ],
      "name": "transferOwnership",
      "outputs": [],
      "stateMutability": "nonpayable",
      "type": "function"
    }
  ],
  "bytecode": "0x608060405234801561001057600080fd5b50336000806101000a81548173ffffffffffffffffffffffffffffffffffffffff021916908373ffffffffffffffffffffffffffffffffffffffff16021790555060008054906101000a900473ffffffffffffffffffffffffffffffffffffffff1673ffffffffffffffffffffffffffffffffffffffff16600073ffffffffffffffffffffffffffffffffffffffff167f8be0079c531659141344cd1fd0a4f28419497f9722a3daafe3b4186f6b6457e060405160405180910390a3610488806100db6000396000f3fe608060405234801561001057600080fd5b50600436106100575760003560e01c8063715018a61461005c5780638da5cb5b146100665780638f32d59b14610084578063b2bdfa7b146100a2578063f2fde38b146100c0575b600080fd5b6100646100dc565b005b61006e6101ab565b60405161007b91906103a3565b60405180910390f35b61008c6101d4565b60405161009991906103d9565b60405180910390f35b6100aa61022b565b6040516100b791906103a3565b60405180910390f35b6100da60048036038101906100d59190610425565b61024f565b005b6100e46101d4565b6100ed57600080fd5b600073ffffffffffffffffffffffffffffffffffffffff1660008054906101000a900473ffffffffffffffffffffffffffffffffffffffff1673ffffffffffffffffffffffffffffffffffffffff167f8be0079c531659141344cd1fd0a4f28419497f9722a3daafe3b4186f6b6457e060405160405180910390a360008060006101000a81548173ffffffffffffffffffffffffffffffffffffffff021916908373ffffffffffffffffffffffffffffffffffffffff160217905550565b60008060009054906101000a900473ffffffffffffffffffffffffffffffffffffffff16905090565b60008060009054906101000a900473ffffffffffffffffffffffffffffffffffffffff1673ffffffffffffffffffffffffffffffffffffffff163373ffffffffffffffffffffffffffffffffffffffff1614905090565b60008054906101000a900473ffffffffffffffffffffffffffffffffffffffff1681565b6102576101d4565b61026057600080fd5b6102698161026c565b50565b600073ffffffffffffffffffffffffffffffffffffffff168173ffffffffffffffffffffffffffffffffffffffff16036102a557600080fd5b8073ffffffffffffffffffffffffffffffffffffffff1660008054906101000a900473ffffffffffffffffffffffffffffffffffffffff1673ffffffffffffffffffffffffffffffffffffffff167f8be0079c531659141344cd1fd0a4f28419497f9722a3daafe3b4186f6b6457e060405160405180910390a3806000806101000a81548173ffffffffffffffffffffffffffffffffffffffff021916908373ffffffffffffffffffffffffffffffffffffffff16021790555050565b600073ffffffffffffffffffffffffffffffffffffffff82169050919050565b600061038d82610362565b9050919050565b61039d81610382565b82525050565b60006020820190506103b86000830184610394565b92915050565b60008115159050919050565b6103d3816103be565b82525050565b60006020820190506103ee60008301846103ca565b92915050565b600080fd5b61040281610382565b811461040d57600080fd5b50565b60008135905061041f816103f9565b92915050565b60006020828403121561043b5761043a6103f4565b5b600061044984828501610410565b9150509291505056fea264697066735822122015bb03ebe6a119ae14c5f61bb1cf95acee3c4b590e6d873aa4d0a85c1f1829cf64736f6c63430008130033",
  "immutableReferences": {},
  "source": "// SPDX-License-Identifier: MIT \npragma solidity ^0.8.19;\n/**\n * @title Ownable\n * @dev The Ownable contract has an owner address, and provides basic authorization control\n * functions, this simplifies the implementation of \"user permissions\".\n */\n\n\n /* Basicamente Ownable hace lo siguiente:\n    Cuando el contrato ha sido creado, su constructor inicializa\n    owner con msg.sender (la persona que lo ha implementado)\n    Añade el modificador onlyOwner, que puede restringir el acceso a \n    solo el owner en una función. Permite transferir el contrato a un nuevo owner.\n  */\n  \ncontract Ownable {\n  address public _owner;\n\n  event OwnershipTransferred(address indexed previousOwner, address indexed newOwner);\n\n  /**\n   * @dev The Ownable constructor sets the original `owner` of the contract to the sender\n   * account.\n   */\n   constructor() {\n     _owner = msg.sender;\n     emit OwnershipTransferred(address(0), _owner);\n   }\n  /**\n  * @return the address of the owner.\n  */\n  function owner() public view returns(address) {\n    return _owner;\n  }\n\n  /**\n   * @dev Throws if called by any account other than the owner.\n   */\n  modifier onlyOwner() {\n    require(isOwner());\n    _;\n  }\n\n   /**\n  * @return true if `msg.sender` is the owner of the contract.\n  */\n  function isOwner() public view returns(bool) {\n    return msg.sender == _owner;\n  }\n\n    /**\n  * @dev Allows the current owner to relinquish control of the contract.\n  * @notice Renouncing to ownership will leave the contract without an owner.\n  * It will not be possible to call the functions with the `onlyOwner`\n  * modifier anymore.\n  */\n  function renounceOwnership() public onlyOwner {\n    emit OwnershipTransferred(_owner, address(0));\n    _owner = address(0);\n  }\n\n  /**\n   * @dev Allows the current owner to transfer control of the contract to a newOwner.\n   * @param newOwner The address to transfer ownership to.\n   */\n  function transferOwnership(address newOwner) public onlyOwner {\n    _transferOwnership(newOwner);\n  }\n\n  /**\n  * @dev Transfers control of the contract to a newOwner.\n  * @param newOwner The address to transfer ownership to.\n  */\n  function _transferOwnership(address newOwner) internal {\n    require(newOwner != address(0));\n    emit OwnershipTransferred(_owner, newOwner);\n    _owner = newOwner;\n  }\n\n}\n",
  "sourcePath": "/Users/manu/dev/crypto/cryptozombies/truffle/contracts-cryptozombies/contracts/OpenZeppelin_Ownable.sol",
  "compiler": {
    "name": "solc",
    "version": "0.8.19+commit.7dd6d404.Emscripten.clang"
  },
  "schemaVersion": "3.4.16",
  "updatedAt": "2024-06-20T09:26:33.874Z",
  "devdoc": {
    "details": "The Ownable contract has an owner address, and provides basic authorization control functions, this simplifies the implementation of \"user permissions\".",
    "kind": "dev",
    "methods": {
      "constructor": {
        "details": "The Ownable constructor sets the original `owner` of the contract to the sender account."
      },
      "isOwner()": {
        "returns": {
          "_0": "true if `msg.sender` is the owner of the contract."
        }
      },
      "owner()": {
        "returns": {
          "_0": "the address of the owner."
        }
      },
      "renounceOwnership()": {
        "details": "Allows the current owner to relinquish control of the contract."
      },
      "transferOwnership(address)": {
        "details": "Allows the current owner to transfer control of the contract to a newOwner.",
        "params": {
          "newOwner": "The address to transfer ownership to."
        }
      }
    },
    "title": "Ownable",
    "version": 1
  },
  "userdoc": {
    "kind": "user",
    "methods": {
      "renounceOwnership()": {
        "notice": "Renouncing to ownership will leave the contract without an owner. It will not be possible to call the functions with the `onlyOwner` modifier anymore."
      }
    },
    "version": 1
  }
}