{
  "contractName": "ZombieFactory",
  "abi": [
    {
      "anonymous": false,
      "inputs": [
        {
          "indexed": false,
          "internalType": "uint256",
          "name": "zombieId",
          "type": "uint256"
        },
        {
          "indexed": false,
          "internalType": "string",
          "name": "name",
          "type": "string"
        },
        {
          "indexed": false,
          "internalType": "uint256",
          "name": "dna",
          "type": "uint256"
        }
      ],
      "name": "NewZombie",
      "type": "event"
    },
    {
      "anonymous": false,
      "inputs": [
        {
          "indexed": true,
          "internalType": "address",
          "name": "previousOwner",
          "type": "address"
        },
        {
          "indexed": true,
          "internalType": "address",
          "name": "newOwner",
          "type": "address"
        }
      ],
      "name": "OwnershipTransferred",
      "type": "event"
    },
    {
      "inputs": [],
      "name": "_owner",
      "outputs": [
        {
          "internalType": "address",
          "name": "",
          "type": "address"
        }
      ],
      "stateMutability": "view",
      "type": "function",
      "constant": true
    },
    {
      "inputs": [],
      "name": "isOwner",
      "outputs": [
        {
          "internalType": "bool",
          "name": "",
          "type": "bool"
        }
      ],
      "stateMutability": "view",
      "type": "function",
      "constant": true
    },
    {
      "inputs": [],
      "name": "owner",
      "outputs": [
        {
          "internalType": "address",
          "name": "",
          "type": "address"
        }
      ],
      "stateMutability": "view",
      "type": "function",
      "constant": true
    },
    {
      "inputs": [],
      "name": "renounceOwnership",
      "outputs": [],
      "stateMutability": "nonpayable",
      "type": "function"
    },
    {
      "inputs": [
        {
          "internalType": "address",
          "name": "newOwner",
          "type": "address"
        }
      ],
      "name": "transferOwnership",
      "outputs": [],
      "stateMutability": "nonpayable",
      "type": "function"
    },
    {
      "inputs": [
        {
          "internalType": "uint256",
          "name": "",
          "type": "uint256"
        }
      ],
      "name": "zombieToOwner",
      "outputs": [
        {
          "internalType": "address",
          "name": "",
          "type": "address"
        }
      ],
      "stateMutability": "view",
      "type": "function",
      "constant": true
    },
    {
      "inputs": [
        {
          "internalType": "uint256",
          "name": "",
          "type": "uint256"
        }
      ],
      "name": "zombies",
      "outputs": [
        {
          "internalType": "string",
          "name": "name",
          "type": "string"
        },
        {
          "internalType": "uint256",
          "name": "dna",
          "type": "uint256"
        },
        {
          "internalType": "uint32",
          "name": "level",
          "type": "uint32"
        },
        {
          "internalType": "uint32",
          "name": "readyTime",
          "type": "uint32"
        },
        {
          "internalType": "uint16",
          "name": "winCount",
          "type": "uint16"
        },
        {
          "internalType": "uint16",
          "name": "lossCount",
          "type": "uint16"
        }
      ],
      "stateMutability": "view",
      "type": "function",
      "constant": true
    },
    {
      "inputs": [
        {
          "internalType": "string",
          "name": "_name",
          "type": "string"
        }
      ],
      "name": "createRandomZombie",
      "outputs": [],
      "stateMutability": "nonpayable",
      "type": "function"
    }
  ],
  "bytecode": "0x60806040526010600155600154600a6200001a919062000280565b600255620151806003553480156200003157600080fd5b50336000806101000a81548173ffffffffffffffffffffffffffffffffffffffff021916908373ffffffffffffffffffffffffffffffffffffffff16021790555060008054906101000a900473ffffffffffffffffffffffffffffffffffffffff1673ffffffffffffffffffffffffffffffffffffffff16600073ffffffffffffffffffffffffffffffffffffffff167f8be0079c531659141344cd1fd0a4f28419497f9722a3daafe3b4186f6b6457e060405160405180910390a3620002d1565b7f4e487b7100000000000000000000000000000000000000000000000000000000600052601160045260246000fd5b60008160011c9050919050565b6000808291508390505b60018511156200018157808604811115620001595762000158620000f3565b5b6001851615620001695780820291505b8081029050620001798562000122565b945062000139565b94509492505050565b6000826200019c57600190506200026f565b81620001ac57600090506200026f565b8160018114620001c55760028114620001d05762000206565b60019150506200026f565b60ff841115620001e557620001e4620000f3565b5b8360020a915084821115620001ff57620001fe620000f3565b5b506200026f565b5060208310610133831016604e8410600b8410161715620002405782820a9050838111156200023a5762000239620000f3565b5b6200026f565b6200024f84848460016200012f565b92509050818404811115620002695762000268620000f3565b5b81810290505b9392505050565b6000819050919050565b60006200028d8262000276565b91506200029a8362000276565b9250620002c97fffffffffffffffffffffffffffffffffffffffffffffffffffffffffffffffff84846200018a565b905092915050565b61114180620002e16000396000f3fe608060405234801561001057600080fd5b50600436106100885760003560e01c80638da5cb5b1161005b5780638da5cb5b146101185780638f32d59b14610136578063b2bdfa7b14610154578063f2fde38b1461017257610088565b80632052465e1461008d578063528b7b8f146100c2578063715018a6146100f25780637bff0a01146100fc575b600080fd5b6100a760048036038101906100a2919061089d565b61018e565b6040516100b9969594939291906109a5565b60405180910390f35b6100dc60048036038101906100d7919061089d565b61029e565b6040516100e99190610a4e565b60405180910390f35b6100fa6102d1565b005b61011660048036038101906101119190610b9e565b6103a0565b005b6101206103bb565b60405161012d9190610a4e565b60405180910390f35b61013e6103e4565b60405161014b9190610c02565b60405180910390f35b61015c61043b565b6040516101699190610a4e565b60405180910390f35b61018c60048036038101906101879190610c49565b61045f565b005b6006818154811061019e57600080fd5b90600052602060002090600302016000915090508060000180546101c190610ca5565b80601f01602080910402602001604051908101604052809291908181526020018280546101ed90610ca5565b801561023a5780601f1061020f5761010080835404028352916020019161023a565b820191906000526020600020905b81548152906001019060200180831161021d57829003601f168201915b5050505050908060010154908060020160009054906101000a900463ffffffff16908060020160049054906101000a900463ffffffff16908060020160089054906101000a900461ffff169080600201600a9054906101000a900461ffff16905086565b60046020528060005260406000206000915054906101000a900473ffffffffffffffffffffffffffffffffffffffff1681565b6102d96103e4565b6102e257600080fd5b600073ffffffffffffffffffffffffffffffffffffffff1660008054906101000a900473ffffffffffffffffffffffffffffffffffffffff1673ffffffffffffffffffffffffffffffffffffffff167f8be0079c531659141344cd1fd0a4f28419497f9722a3daafe3b4186f6b6457e060405160405180910390a360008060006101000a81548173ffffffffffffffffffffffffffffffffffffffff021916908373ffffffffffffffffffffffffffffffffffffffff160217905550565b60006103ab8261047c565b90506103b782826104c1565b5050565b60008060009054906101000a900473ffffffffffffffffffffffffffffffffffffffff16905090565b60008060009054906101000a900473ffffffffffffffffffffffffffffffffffffffff1673ffffffffffffffffffffffffffffffffffffffff163373ffffffffffffffffffffffffffffffffffffffff1614905090565b60008054906101000a900473ffffffffffffffffffffffffffffffffffffffff1681565b6104676103e4565b61047057600080fd5b61047981610731565b50565b600080826040516020016104909190610d12565b6040516020818303038152906040528051906020012060001c9050600254816104b99190610d58565b915050919050565b60066040518060c00160405280848152602001838152602001600163ffffffff168152602001600354426104f59190610db8565b63ffffffff168152602001600061ffff168152602001600061ffff16815250908060018154018082558091505060019003906000526020600020906003020160009091909190915060008201518160000190816105529190610f98565b506020820151816001015560408201518160020160006101000a81548163ffffffff021916908363ffffffff16021790555060608201518160020160046101000a81548163ffffffff021916908363ffffffff16021790555060808201518160020160086101000a81548161ffff021916908361ffff16021790555060a082015181600201600a6101000a81548161ffff021916908361ffff160217905550505060006001600680549050610607919061106a565b9050336004600083815260200190815260200160002060006101000a81548173ffffffffffffffffffffffffffffffffffffffff021916908373ffffffffffffffffffffffffffffffffffffffff1602179055506106ae6001600560003373ffffffffffffffffffffffffffffffffffffffff1673ffffffffffffffffffffffffffffffffffffffff1681526020019081526020016000205461082790919063ffffffff16565b600560003373ffffffffffffffffffffffffffffffffffffffff1673ffffffffffffffffffffffffffffffffffffffff168152602001908152602001600020819055507f88f026aacbbecc90c18411df4b1185fd8d9be2470f1962f192bf84a27d0704b78184846040516107249392919061109e565b60405180910390a1505050565b600073ffffffffffffffffffffffffffffffffffffffff168173ffffffffffffffffffffffffffffffffffffffff160361076a57600080fd5b8073ffffffffffffffffffffffffffffffffffffffff1660008054906101000a900473ffffffffffffffffffffffffffffffffffffffff1673ffffffffffffffffffffffffffffffffffffffff167f8be0079c531659141344cd1fd0a4f28419497f9722a3daafe3b4186f6b6457e060405160405180910390a3806000806101000a81548173ffffffffffffffffffffffffffffffffffffffff021916908373ffffffffffffffffffffffffffffffffffffffff16021790555050565b60008082846108369190610db8565b905083811015610849576108486110dc565b5b8091505092915050565b6000604051905090565b600080fd5b600080fd5b6000819050919050565b61087a81610867565b811461088557600080fd5b50565b60008135905061089781610871565b92915050565b6000602082840312156108b3576108b261085d565b5b60006108c184828501610888565b91505092915050565b600081519050919050565b600082825260208201905092915050565b60005b838110156109045780820151818401526020810190506108e9565b60008484015250505050565b6000601f19601f8301169050919050565b600061092c826108ca565b61093681856108d5565b93506109468185602086016108e6565b61094f81610910565b840191505092915050565b61096381610867565b82525050565b600063ffffffff82169050919050565b61098281610969565b82525050565b600061ffff82169050919050565b61099f81610988565b82525050565b600060c08201905081810360008301526109bf8189610921565b90506109ce602083018861095a565b6109db6040830187610979565b6109e86060830186610979565b6109f56080830185610996565b610a0260a0830184610996565b979650505050505050565b600073ffffffffffffffffffffffffffffffffffffffff82169050919050565b6000610a3882610a0d565b9050919050565b610a4881610a2d565b82525050565b6000602082019050610a636000830184610a3f565b92915050565b600080fd5b600080fd5b7f4e487b7100000000000000000000000000000000000000000000000000000000600052604160045260246000fd5b610aab82610910565b810181811067ffffffffffffffff82111715610aca57610ac9610a73565b5b80604052505050565b6000610add610853565b9050610ae98282610aa2565b919050565b600067ffffffffffffffff821115610b0957610b08610a73565b5b610b1282610910565b9050602081019050919050565b82818337600083830152505050565b6000610b41610b3c84610aee565b610ad3565b905082815260208101848484011115610b5d57610b5c610a6e565b5b610b68848285610b1f565b509392505050565b600082601f830112610b8557610b84610a69565b5b8135610b95848260208601610b2e565b91505092915050565b600060208284031215610bb457610bb361085d565b5b600082013567ffffffffffffffff811115610bd257610bd1610862565b5b610bde84828501610b70565b91505092915050565b60008115159050919050565b610bfc81610be7565b82525050565b6000602082019050610c176000830184610bf3565b92915050565b610c2681610a2d565b8114610c3157600080fd5b50565b600081359050610c4381610c1d565b92915050565b600060208284031215610c5f57610c5e61085d565b5b6000610c6d84828501610c34565b91505092915050565b7f4e487b7100000000000000000000000000000000000000000000000000000000600052602260045260246000fd5b60006002820490506001821680610cbd57607f821691505b602082108103610cd057610ccf610c76565b5b50919050565b600081905092915050565b6000610cec826108ca565b610cf68185610cd6565b9350610d068185602086016108e6565b80840191505092915050565b6000610d1e8284610ce1565b915081905092915050565b7f4e487b7100000000000000000000000000000000000000000000000000000000600052601260045260246000fd5b6000610d6382610867565b9150610d6e83610867565b925082610d7e57610d7d610d29565b5b828206905092915050565b7f4e487b7100000000000000000000000000000000000000000000000000000000600052601160045260246000fd5b6000610dc382610867565b9150610dce83610867565b9250828201905080821115610de657610de5610d89565b5b92915050565b60008190508160005260206000209050919050565b60006020601f8301049050919050565b600082821b905092915050565b600060088302610e4e7fffffffffffffffffffffffffffffffffffffffffffffffffffffffffffffffff82610e11565b610e588683610e11565b95508019841693508086168417925050509392505050565b6000819050919050565b6000610e95610e90610e8b84610867565b610e70565b610867565b9050919050565b6000819050919050565b610eaf83610e7a565b610ec3610ebb82610e9c565b848454610e1e565b825550505050565b600090565b610ed8610ecb565b610ee3818484610ea6565b505050565b5b81811015610f0757610efc600082610ed0565b600181019050610ee9565b5050565b601f821115610f4c57610f1d81610dec565b610f2684610e01565b81016020851015610f35578190505b610f49610f4185610e01565b830182610ee8565b50505b505050565b600082821c905092915050565b6000610f6f60001984600802610f51565b1980831691505092915050565b6000610f888383610f5e565b9150826002028217905092915050565b610fa1826108ca565b67ffffffffffffffff811115610fba57610fb9610a73565b5b610fc48254610ca5565b610fcf828285610f0b565b600060209050601f8311600181146110025760008415610ff0578287015190505b610ffa8582610f7c565b865550611062565b601f19841661101086610dec565b60005b8281101561103857848901518255600182019150602085019450602081019050611013565b868310156110555784890151611051601f891682610f5e565b8355505b6001600288020188555050505b505050505050565b600061107582610867565b915061108083610867565b925082820390508181111561109857611097610d89565b5b92915050565b60006060820190506110b3600083018661095a565b81810360208301526110c58185610921565b90506110d4604083018461095a565b949350505050565b7f4e487b7100000000000000000000000000000000000000000000000000000000600052600160045260246000fdfea264697066735822122098f7721b54e26d4dc8466e3bdbb9482625a4b9be7ea3e9001b3be5902f11da0464736f6c63430008130033",
  "immutableReferences": {},
  "source": "// SPDX-License-Identifier: MIT \npragma solidity ^0.8.19;\n\nimport \"./OpenZeppelin_Ownable.sol\";\nimport \"./safemath.sol\";\n\ncontract ZombieFactory is Ownable {\n\n    // Usamos SafeMath para evitar ataques de desbordamiento\n\n    using SafeMath for uint256;\n    using SafeMath32 for uint32;\n    using SafeMath16 for uint16;\n\n    /* \n        Las Variables de estado se guardan permanentemente en el almacenamiento \n        del contrato. Esto significa que se escriben en la cadena de bloques\n        de Ethereum. Equivalente a escribir en una base de datos\n    */\n\n    uint dnaDigits = 16;\n    uint dnaModulus = 10 ** dnaDigits; // 10 elevado a dnaDigits.\n    uint cooldownTime = 1 days;\n\n    /* Si tienes varios uints dentro de una estructura, \n       usar un uint de tamao reducido cuando sea posible permitir\n       a Solidity empaquetar estas variables para que ocupen menos espacio en memoria.\n    */\n\n    struct Zombie {\n        string name;\n        uint dna;\n        uint32 level;\n        uint32 readyTime;\n        uint16 winCount; // uint16 da para 1716 aos de batallitas\n        uint16 lossCount;\n    }\n\n    /* Para guardar el dueo de un zombi, vamos a usar dos mapeos: \n        el primero guardar el rastro de la direccin que posee ese zombi \n        y la otra guardar el rastro de cuantos zombis posee cada propietario.\n    */\n\n    mapping (uint => address) public zombieToOwner; // es publico para que otras aplicaciones puedan leerlo\n    mapping (address => uint) ownerZombieCount; // es privado porque no necesitamos que otras aplicaciones lo lean\n\n    /*\n        Vamos a guardar un ejrcito de zombis en nuestra aplicacin\n        Y vamos a querer mostrar todos nuestros zombis a otras applicaciones, \n        as que lo queremos pblico para que otras aplicaciones puedan leerlo.\n    */\n\n    Zombie[] public zombies;\n\n    /* \n        Los eventos son la forma en la que nuestro contrato comunica que algo sucedi\n        en la cadena de bloques a la interfaz de usuario, el cual puede estar 'escuchando' ciertos eventos\n        y hacer algo cuando sucedan, se lanza con emit y desde javascript se puede escuchar por ejemplo con \n        YourContract.IntegersAdded(function(error, result) {\n        hacer algo con `result`\n        })\n    */\n\n    /*\n        Evento que se lanza cuando se crea un nuevo Zombie\n    */\n\n    event NewZombie(uint zombieId, string name, uint dna);\n\n\n    /*\n        Crea un nuevo Zombie y se aade al array zombies. Funcion privada.\n        la convencin es nombrar las funciones privadas empezando con una barra baja (_).\n        Solidity tambin contiene funciones pure, \n        que significa que ni siquiera accedes a los datos de la aplicacin\n    */\n\n    // now es en solidity < 0.6, ahora es block.timestamp\n\n    function _createZombie(string memory _name, uint _dna) internal {\n        zombies.push(Zombie(_name, _dna, 1, uint32(block.timestamp  + cooldownTime),0,0)); // en solidity < 0.6.0 push devolvia el nuevo tamao del array, en varsiones mayores no devuelve nada\n        uint id = zombies.length - 1;\n       \n        /*  Primero, despus de recibir la id del nuevo zombi, \n            actualizamos nuestro mapeo zombieToOwner para que guarde msg.sender \n            bajo esa id.\n        */\n\n\n        /*  En Solidity, hay una serie de variables globales que estn disponibles \n            para todas las funciones. Una de estas es msg.sender, \n            que hace referencia a la direccin (address) de la persona\n            (o el contrato inteligente) que ha llamado a esa funcin.\n\n            Nota: En Solidity, la ejecucin de una funcin necesita empezar\n            con una llamada exterior. Un contrato se sentar en la blockchain\n            sin hacer nada esperando a que alguien llame a una de sus funciones.\n            As que siempre habr un msg.sender.\n            zombieToOwner[id] = msg.sender; // msg.sender es la direccin del propietario del contrato \n            ownerZombieCount[msg.sender]++; // Incrementa el contador de zombis del propietario       \n        */ \n\n        zombieToOwner[id] = msg.sender; // msg.sender es la direccin del propietario del contrato  \n        ownerZombieCount[msg.sender] = ownerZombieCount[msg.sender].add(1); // Incrementa el contador de zombis del propietario \n\n\n        emit NewZombie(id, _name, _dna); // Lanza el evento NewZombie\n\n    }\n\n    /*\n        view: significa que no se modificar el estado del contrato.\n        La funcin keccak256 es una funcin hash criptogrfica que toma un nmero arbitrario de bytes de entrada y devuelve una cadena de 32 bytes.\n    */\n\n    function _generateRandomDna(string memory _str) private view returns (uint) {\n        uint rand = uint(keccak256(abi.encodePacked(_str))); // forzar el tipo como uint\n        return rand % dnaModulus; // para asegurarnos de que el ADN tenga solo 16 dgitos % 10 ** dnaDigits\n    }\n\n    /*\n        Funcin pblica que toma un nombre y crea un Zombie con ese nombre y un ADN aleatorio.\n    */\n\n    /*  Vamos a usar require para asegurarnos que esta funcin solo pueda \n        ser ejecutada una vez por usuario, cuando vayan a crear a su primer zombi.\n    */\n\n\n    function createRandomZombie(string memory _name) public {\n\n        //require(ownerZombieCount[msg.sender] == 0); // Solo puede crear un zombi si no tiene ninguno    \n\n        uint randDna = _generateRandomDna(_name); // Genera un nmero aleatorio de 16 digitos\n        _createZombie(_name, randDna); // Create a new Zombie without assigning a value\n       \n    }\n\n  \n\n}",
  "sourcePath": "/Users/manu/dev/crypto/cryptozombies/truffle/contracts-cryptozombies/contracts/ZombieFactory.sol",
  "compiler": {
    "name": "solc",
    "version": "0.8.19+commit.7dd6d404.Emscripten.clang"
  },
  "schemaVersion": "3.4.16",
  "updatedAt": "2024-06-20T21:57:29.595Z",
  "networkType": "ethereum",
  "devdoc": {
    "kind": "dev",
    "methods": {
      "isOwner()": {
        "returns": {
          "_0": "true if `msg.sender` is the owner of the contract."
        }
      },
      "owner()": {
        "returns": {
          "_0": "the address of the owner."
        }
      },
      "renounceOwnership()": {
        "details": "Allows the current owner to relinquish control of the contract."
      },
      "transferOwnership(address)": {
        "details": "Allows the current owner to transfer control of the contract to a newOwner.",
        "params": {
          "newOwner": "The address to transfer ownership to."
        }
      }
    },
    "version": 1
  },
  "userdoc": {
    "kind": "user",
    "methods": {
      "renounceOwnership()": {
        "notice": "Renouncing to ownership will leave the contract without an owner. It will not be possible to call the functions with the `onlyOwner` modifier anymore."
      }
    },
    "version": 1
  }
}