{
  "contractName": "ZombieHelper",
  "abi": [
    {
      "anonymous": false,
      "inputs": [
        {
          "indexed": false,
          "internalType": "uint256",
          "name": "zombieId",
          "type": "uint256"
        },
        {
          "indexed": false,
          "internalType": "string",
          "name": "name",
          "type": "string"
        },
        {
          "indexed": false,
          "internalType": "uint256",
          "name": "dna",
          "type": "uint256"
        }
      ],
      "name": "NewZombie",
      "type": "event"
    },
    {
      "anonymous": false,
      "inputs": [
        {
          "indexed": true,
          "internalType": "address",
          "name": "previousOwner",
          "type": "address"
        },
        {
          "indexed": true,
          "internalType": "address",
          "name": "newOwner",
          "type": "address"
        }
      ],
      "name": "OwnershipTransferred",
      "type": "event"
    },
    {
      "inputs": [],
      "name": "_owner",
      "outputs": [
        {
          "internalType": "address",
          "name": "",
          "type": "address"
        }
      ],
      "stateMutability": "view",
      "type": "function",
      "constant": true
    },
    {
      "inputs": [
        {
          "internalType": "string",
          "name": "_name",
          "type": "string"
        }
      ],
      "name": "createRandomZombie",
      "outputs": [],
      "stateMutability": "nonpayable",
      "type": "function"
    },
    {
      "inputs": [
        {
          "internalType": "uint256",
          "name": "_zombieId",
          "type": "uint256"
        },
        {
          "internalType": "uint256",
          "name": "_kittyId",
          "type": "uint256"
        }
      ],
      "name": "feedOnKitty",
      "outputs": [],
      "stateMutability": "nonpayable",
      "type": "function"
    },
    {
      "inputs": [],
      "name": "isOwner",
      "outputs": [
        {
          "internalType": "bool",
          "name": "",
          "type": "bool"
        }
      ],
      "stateMutability": "view",
      "type": "function",
      "constant": true
    },
    {
      "inputs": [],
      "name": "owner",
      "outputs": [
        {
          "internalType": "address",
          "name": "",
          "type": "address"
        }
      ],
      "stateMutability": "view",
      "type": "function",
      "constant": true
    },
    {
      "inputs": [],
      "name": "renounceOwnership",
      "outputs": [],
      "stateMutability": "nonpayable",
      "type": "function"
    },
    {
      "inputs": [
        {
          "internalType": "address",
          "name": "_address",
          "type": "address"
        }
      ],
      "name": "setKittyContractAddress",
      "outputs": [],
      "stateMutability": "nonpayable",
      "type": "function"
    },
    {
      "inputs": [
        {
          "internalType": "address",
          "name": "newOwner",
          "type": "address"
        }
      ],
      "name": "transferOwnership",
      "outputs": [],
      "stateMutability": "nonpayable",
      "type": "function"
    },
    {
      "inputs": [
        {
          "internalType": "uint256",
          "name": "",
          "type": "uint256"
        }
      ],
      "name": "zombieToOwner",
      "outputs": [
        {
          "internalType": "address",
          "name": "",
          "type": "address"
        }
      ],
      "stateMutability": "view",
      "type": "function",
      "constant": true
    },
    {
      "inputs": [
        {
          "internalType": "uint256",
          "name": "",
          "type": "uint256"
        }
      ],
      "name": "zombies",
      "outputs": [
        {
          "internalType": "string",
          "name": "name",
          "type": "string"
        },
        {
          "internalType": "uint256",
          "name": "dna",
          "type": "uint256"
        },
        {
          "internalType": "uint32",
          "name": "level",
          "type": "uint32"
        },
        {
          "internalType": "uint32",
          "name": "readyTime",
          "type": "uint32"
        },
        {
          "internalType": "uint16",
          "name": "winCount",
          "type": "uint16"
        },
        {
          "internalType": "uint16",
          "name": "lossCount",
          "type": "uint16"
        }
      ],
      "stateMutability": "view",
      "type": "function",
      "constant": true
    },
    {
      "inputs": [
        {
          "internalType": "uint256",
          "name": "_zombieId",
          "type": "uint256"
        },
        {
          "internalType": "string",
          "name": "_newName",
          "type": "string"
        }
      ],
      "name": "changeName",
      "outputs": [],
      "stateMutability": "nonpayable",
      "type": "function"
    },
    {
      "inputs": [
        {
          "internalType": "uint256",
          "name": "_zombieId",
          "type": "uint256"
        },
        {
          "internalType": "uint256",
          "name": "_newDna",
          "type": "uint256"
        }
      ],
      "name": "changeDna",
      "outputs": [],
      "stateMutability": "nonpayable",
      "type": "function"
    },
    {
      "inputs": [
        {
          "internalType": "address",
          "name": "_owner",
          "type": "address"
        }
      ],
      "name": "getZombiesByOwner",
      "outputs": [
        {
          "internalType": "uint256[]",
          "name": "",
          "type": "uint256[]"
        }
      ],
      "stateMutability": "view",
      "type": "function",
      "constant": true
    },
    {
      "inputs": [
        {
          "internalType": "uint256",
          "name": "_zombieId",
          "type": "uint256"
        }
      ],
      "name": "levelUp",
      "outputs": [],
      "stateMutability": "payable",
      "type": "function",
      "payable": true
    },
    {
      "inputs": [
        {
          "internalType": "uint256",
          "name": "_fee",
          "type": "uint256"
        }
      ],
      "name": "setLevelUpFee",
      "outputs": [],
      "stateMutability": "nonpayable",
      "type": "function"
    },
    {
      "inputs": [],
      "name": "withdraw",
      "outputs": [],
      "stateMutability": "nonpayable",
      "type": "function"
    }
  ],
  "bytecode": "0x60806040526010600155600154600a6200001a91906200028b565b6002556201518060035566038d7ea4c680006008553480156200003c57600080fd5b50336000806101000a81548173ffffffffffffffffffffffffffffffffffffffff021916908373ffffffffffffffffffffffffffffffffffffffff16021790555060008054906101000a900473ffffffffffffffffffffffffffffffffffffffff1673ffffffffffffffffffffffffffffffffffffffff16600073ffffffffffffffffffffffffffffffffffffffff167f8be0079c531659141344cd1fd0a4f28419497f9722a3daafe3b4186f6b6457e060405160405180910390a3620002dc565b7f4e487b7100000000000000000000000000000000000000000000000000000000600052601160045260246000fd5b60008160011c9050919050565b6000808291508390505b60018511156200018c57808604811115620001645762000163620000fe565b5b6001851615620001745780820291505b808102905062000184856200012d565b945062000144565b94509492505050565b600082620001a757600190506200027a565b81620001b757600090506200027a565b8160018114620001d05760028114620001db5762000211565b60019150506200027a565b60ff841115620001f057620001ef620000fe565b5b8360020a9150848211156200020a5762000209620000fe565b5b506200027a565b5060208310610133831016604e8410600b84101617156200024b5782820a905083811115620002455762000244620000fe565b5b6200027a565b6200025a84848460016200013a565b92509050818404811115620002745762000273620000fe565b5b81810290505b9392505050565b6000819050919050565b6000620002988262000281565b9150620002a58362000281565b9250620002d47fffffffffffffffffffffffffffffffffffffffffffffffffffffffffffffffff848462000195565b905092915050565b611ec980620002ec6000396000f3fe6080604052600436106100f35760003560e01c8063715018a61161008a578063b2bdfa7b11610059578063b2bdfa7b146102f8578063c39cbef114610323578063ccf670f81461034c578063f2fde38b14610375576100f3565b8063715018a6146102625780637bff0a01146102795780638da5cb5b146102a25780638f32d59b146102cd576100f3565b80634412e104116100c65780634412e10414610196578063528b7b8f146101d35780635f4623f1146102105780635faf288014610239576100f3565b80630ce90ec2146100f857806317a7f4cc146101145780632052465e1461013d5780633ccfd60b1461017f575b600080fd5b610112600480360381019061010d9190611239565b61039e565b005b34801561012057600080fd5b5061013b60048036038101906101369190611266565b610414565b005b34801561014957600080fd5b50610164600480360381019061015f9190611239565b610532565b60405161017696959493929190611381565b60405180910390f35b34801561018b57600080fd5b50610194610642565b005b3480156101a257600080fd5b506101bd60048036038101906101b89190611447565b6106a9565b6040516101ca9190611532565b60405180910390f35b3480156101df57600080fd5b506101fa60048036038101906101f59190611239565b6107fb565b6040516102079190611563565b60405180910390f35b34801561021c57600080fd5b5061023760048036038101906102329190611447565b61082e565b005b34801561024557600080fd5b50610260600480360381019061025b9190611266565b610883565b005b34801561026e57600080fd5b5061027761096b565b005b34801561028557600080fd5b506102a0600480360381019061029b91906116b3565b610a3a565b005b3480156102ae57600080fd5b506102b7610a55565b6040516102c49190611563565b60405180910390f35b3480156102d957600080fd5b506102e2610a7e565b6040516102ef9190611717565b60405180910390f35b34801561030457600080fd5b5061030d610ad5565b60405161031a9190611563565b60405180910390f35b34801561032f57600080fd5b5061034a60048036038101906103459190611732565b610af9565b005b34801561035857600080fd5b50610373600480360381019061036e9190611239565b610bea565b005b34801561038157600080fd5b5061039c60048036038101906103979190611447565b610c05565b005b6008543410156103ad57600080fd5b600681815481106103c1576103c061178e565b5b9060005260206000209060030201600201600081819054906101000a900463ffffffff16809291906103f2906117ec565b91906101000a81548163ffffffff021916908363ffffffff1602179055505050565b6000600760009054906101000a900473ffffffffffffffffffffffffffffffffffffffff1673ffffffffffffffffffffffffffffffffffffffff1663e98b7f4d836040518263ffffffff1660e01b81526004016104719190611818565b61014060405180830381865afa15801561048f573d6000803e3d6000fd5b505050506040513d601f19601f820116820180604052508101906104b39190611874565b9091929394959697985090919293949596975090919293949596509091929394955090919293945090919293509091925090915090508091505061052d83826040518060400160405280600581526020017f6b69747479000000000000000000000000000000000000000000000000000000815250610c22565b505050565b6006818154811061054257600080fd5b906000526020600020906003020160009150905080600001805461056590611982565b80601f016020809104026020016040519081016040528092919081815260200182805461059190611982565b80156105de5780601f106105b3576101008083540402835291602001916105de565b820191906000526020600020905b8154815290600101906020018083116105c157829003601f168201915b5050505050908060010154908060020160009054906101000a900463ffffffff16908060020160049054906101000a900463ffffffff16908060020160089054906101000a900461ffff169080600201600a9054906101000a900461ffff16905086565b61064a610a7e565b61065357600080fd5b600061065d610a55565b90508073ffffffffffffffffffffffffffffffffffffffff166108fc479081150290604051600060405180830381858888f193505050501580156106a5573d6000803e3d6000fd5b5050565b60606000600560008473ffffffffffffffffffffffffffffffffffffffff1673ffffffffffffffffffffffffffffffffffffffff1681526020019081526020016000205467ffffffffffffffff81111561070657610705611588565b5b6040519080825280602002602001820160405280156107345781602001602082028036833780820191505090505b5090506000805b6006805490508110156107f0578473ffffffffffffffffffffffffffffffffffffffff166004600083815260200190815260200160002060009054906101000a900473ffffffffffffffffffffffffffffffffffffffff1673ffffffffffffffffffffffffffffffffffffffff16036107dd57808383815181106107c2576107c161178e565b5b60200260200101818152505081806107d9906119b3565b9250505b80806107e8906119b3565b91505061073b565b508192505050919050565b60046020528060005260406000206000915054906101000a900473ffffffffffffffffffffffffffffffffffffffff1681565b610836610a7e565b61083f57600080fd5b80600760006101000a81548173ffffffffffffffffffffffffffffffffffffffff021916908373ffffffffffffffffffffffffffffffffffffffff16021790555050565b601482816006828154811061089b5761089a61178e565b5b906000526020600020906003020160020160009054906101000a900463ffffffff1663ffffffff1610156108ce57600080fd5b836004600082815260200190815260200160002060009054906101000a900473ffffffffffffffffffffffffffffffffffffffff1673ffffffffffffffffffffffffffffffffffffffff163373ffffffffffffffffffffffffffffffffffffffff161461093a57600080fd5b836006868154811061094f5761094e61178e565b5b9060005260206000209060030201600101819055505050505050565b610973610a7e565b61097c57600080fd5b600073ffffffffffffffffffffffffffffffffffffffff1660008054906101000a900473ffffffffffffffffffffffffffffffffffffffff1673ffffffffffffffffffffffffffffffffffffffff167f8be0079c531659141344cd1fd0a4f28419497f9722a3daafe3b4186f6b6457e060405160405180910390a360008060006101000a81548173ffffffffffffffffffffffffffffffffffffffff021916908373ffffffffffffffffffffffffffffffffffffffff160217905550565b6000610a4582610dbe565b9050610a518282610e03565b5050565b60008060009054906101000a900473ffffffffffffffffffffffffffffffffffffffff16905090565b60008060009054906101000a900473ffffffffffffffffffffffffffffffffffffffff1673ffffffffffffffffffffffffffffffffffffffff163373ffffffffffffffffffffffffffffffffffffffff1614905090565b60008054906101000a900473ffffffffffffffffffffffffffffffffffffffff1681565b6002828160068281548110610b1157610b1061178e565b5b906000526020600020906003020160020160009054906101000a900463ffffffff1663ffffffff161015610b4457600080fd5b836004600082815260200190815260200160002060009054906101000a900473ffffffffffffffffffffffffffffffffffffffff1673ffffffffffffffffffffffffffffffffffffffff163373ffffffffffffffffffffffffffffffffffffffff1614610bb057600080fd5b8360068681548110610bc557610bc461178e565b5b90600052602060002090600302016000019081610be29190611ba7565b505050505050565b610bf2610a7e565b610bfb57600080fd5b8060088190555050565b610c0d610a7e565b610c1657600080fd5b610c1f81611073565b50565b826004600082815260200190815260200160002060009054906101000a900473ffffffffffffffffffffffffffffffffffffffff1673ffffffffffffffffffffffffffffffffffffffff163373ffffffffffffffffffffffffffffffffffffffff1614610c8e57600080fd5b600060068581548110610ca457610ca361178e565b5b90600052602060002090600302019050610cbd81611169565b610cc657600080fd5b60025484610cd49190611ca8565b935060006002858360010154610cea9190611cd9565b610cf49190611d0d565b9050604051602001610d0590611d95565b6040516020818303038152906040528051906020012084604051602001610d2c9190611ddb565b6040516020818303038152906040528051906020012003610d6e576063606482610d569190611ca8565b82610d619190611df2565b610d6b9190611cd9565b90505b610dad6040518060400160405280600681526020017f4e6f4e616d65000000000000000000000000000000000000000000000000000081525082610e03565b610db682611190565b505050505050565b60008082604051602001610dd29190611ddb565b6040516020818303038152906040528051906020012060001c905060025481610dfb9190611ca8565b915050919050565b60066040518060c00160405280848152602001838152602001600163ffffffff16815260200160035442610e379190611cd9565b63ffffffff168152602001600061ffff168152602001600061ffff1681525090806001815401808255809150506001900390600052602060002090600302016000909190919091506000820151816000019081610e949190611ba7565b506020820151816001015560408201518160020160006101000a81548163ffffffff021916908363ffffffff16021790555060608201518160020160046101000a81548163ffffffff021916908363ffffffff16021790555060808201518160020160086101000a81548161ffff021916908361ffff16021790555060a082015181600201600a6101000a81548161ffff021916908361ffff160217905550505060006001600680549050610f499190611df2565b9050336004600083815260200190815260200160002060006101000a81548173ffffffffffffffffffffffffffffffffffffffff021916908373ffffffffffffffffffffffffffffffffffffffff160217905550610ff06001600560003373ffffffffffffffffffffffffffffffffffffffff1673ffffffffffffffffffffffffffffffffffffffff168152602001908152602001600020546111c390919063ffffffff16565b600560003373ffffffffffffffffffffffffffffffffffffffff1673ffffffffffffffffffffffffffffffffffffffff168152602001908152602001600020819055507f88f026aacbbecc90c18411df4b1185fd8d9be2470f1962f192bf84a27d0704b781848460405161106693929190611e26565b60405180910390a1505050565b600073ffffffffffffffffffffffffffffffffffffffff168173ffffffffffffffffffffffffffffffffffffffff16036110ac57600080fd5b8073ffffffffffffffffffffffffffffffffffffffff1660008054906101000a900473ffffffffffffffffffffffffffffffffffffffff1673ffffffffffffffffffffffffffffffffffffffff167f8be0079c531659141344cd1fd0a4f28419497f9722a3daafe3b4186f6b6457e060405160405180910390a3806000806101000a81548173ffffffffffffffffffffffffffffffffffffffff021916908373ffffffffffffffffffffffffffffffffffffffff16021790555050565b6000428260020160049054906101000a900463ffffffff1663ffffffff1611159050919050565b6003544261119e9190611cd9565b8160020160046101000a81548163ffffffff021916908363ffffffff16021790555050565b60008082846111d29190611cd9565b9050838110156111e5576111e4611e64565b5b8091505092915050565b6000604051905090565b600080fd5b600080fd5b6000819050919050565b61121681611203565b811461122157600080fd5b50565b6000813590506112338161120d565b92915050565b60006020828403121561124f5761124e6111f9565b5b600061125d84828501611224565b91505092915050565b6000806040838503121561127d5761127c6111f9565b5b600061128b85828601611224565b925050602061129c85828601611224565b9150509250929050565b600081519050919050565b600082825260208201905092915050565b60005b838110156112e05780820151818401526020810190506112c5565b60008484015250505050565b6000601f19601f8301169050919050565b6000611308826112a6565b61131281856112b1565b93506113228185602086016112c2565b61132b816112ec565b840191505092915050565b61133f81611203565b82525050565b600063ffffffff82169050919050565b61135e81611345565b82525050565b600061ffff82169050919050565b61137b81611364565b82525050565b600060c082019050818103600083015261139b81896112fd565b90506113aa6020830188611336565b6113b76040830187611355565b6113c46060830186611355565b6113d16080830185611372565b6113de60a0830184611372565b979650505050505050565b600073ffffffffffffffffffffffffffffffffffffffff82169050919050565b6000611414826113e9565b9050919050565b61142481611409565b811461142f57600080fd5b50565b6000813590506114418161141b565b92915050565b60006020828403121561145d5761145c6111f9565b5b600061146b84828501611432565b91505092915050565b600081519050919050565b600082825260208201905092915050565b6000819050602082019050919050565b6114a981611203565b82525050565b60006114bb83836114a0565b60208301905092915050565b6000602082019050919050565b60006114df82611474565b6114e9818561147f565b93506114f483611490565b8060005b8381101561152557815161150c88826114af565b9750611517836114c7565b9250506001810190506114f8565b5085935050505092915050565b6000602082019050818103600083015261154c81846114d4565b905092915050565b61155d81611409565b82525050565b60006020820190506115786000830184611554565b92915050565b600080fd5b600080fd5b7f4e487b7100000000000000000000000000000000000000000000000000000000600052604160045260246000fd5b6115c0826112ec565b810181811067ffffffffffffffff821117156115df576115de611588565b5b80604052505050565b60006115f26111ef565b90506115fe82826115b7565b919050565b600067ffffffffffffffff82111561161e5761161d611588565b5b611627826112ec565b9050602081019050919050565b82818337600083830152505050565b600061165661165184611603565b6115e8565b90508281526020810184848401111561167257611671611583565b5b61167d848285611634565b509392505050565b600082601f83011261169a5761169961157e565b5b81356116aa848260208601611643565b91505092915050565b6000602082840312156116c9576116c86111f9565b5b600082013567ffffffffffffffff8111156116e7576116e66111fe565b5b6116f384828501611685565b91505092915050565b60008115159050919050565b611711816116fc565b82525050565b600060208201905061172c6000830184611708565b92915050565b60008060408385031215611749576117486111f9565b5b600061175785828601611224565b925050602083013567ffffffffffffffff811115611778576117776111fe565b5b61178485828601611685565b9150509250929050565b7f4e487b7100000000000000000000000000000000000000000000000000000000600052603260045260246000fd5b7f4e487b7100000000000000000000000000000000000000000000000000000000600052601160045260246000fd5b60006117f782611345565b915063ffffffff820361180d5761180c6117bd565b5b600182019050919050565b600060208201905061182d6000830184611336565b92915050565b61183c816116fc565b811461184757600080fd5b50565b60008151905061185981611833565b92915050565b60008151905061186e8161120d565b92915050565b6000806000806000806000806000806101408b8d031215611898576118976111f9565b5b60006118a68d828e0161184a565b9a505060206118b78d828e0161184a565b99505060406118c88d828e0161185f565b98505060606118d98d828e0161185f565b97505060806118ea8d828e0161185f565b96505060a06118fb8d828e0161185f565b95505060c061190c8d828e0161185f565b94505060e061191d8d828e0161185f565b93505061010061192f8d828e0161185f565b9250506101206119418d828e0161185f565b9150509295989b9194979a5092959850565b7f4e487b7100000000000000000000000000000000000000000000000000000000600052602260045260246000fd5b6000600282049050600182168061199a57607f821691505b6020821081036119ad576119ac611953565b5b50919050565b60006119be82611203565b91507fffffffffffffffffffffffffffffffffffffffffffffffffffffffffffffffff82036119f0576119ef6117bd565b5b600182019050919050565b60008190508160005260206000209050919050565b60006020601f8301049050919050565b600082821b905092915050565b600060088302611a5d7fffffffffffffffffffffffffffffffffffffffffffffffffffffffffffffffff82611a20565b611a678683611a20565b95508019841693508086168417925050509392505050565b6000819050919050565b6000611aa4611a9f611a9a84611203565b611a7f565b611203565b9050919050565b6000819050919050565b611abe83611a89565b611ad2611aca82611aab565b848454611a2d565b825550505050565b600090565b611ae7611ada565b611af2818484611ab5565b505050565b5b81811015611b1657611b0b600082611adf565b600181019050611af8565b5050565b601f821115611b5b57611b2c816119fb565b611b3584611a10565b81016020851015611b44578190505b611b58611b5085611a10565b830182611af7565b50505b505050565b600082821c905092915050565b6000611b7e60001984600802611b60565b1980831691505092915050565b6000611b978383611b6d565b9150826002028217905092915050565b611bb0826112a6565b67ffffffffffffffff811115611bc957611bc8611588565b5b611bd38254611982565b611bde828285611b1a565b600060209050601f831160018114611c115760008415611bff578287015190505b611c098582611b8b565b865550611c71565b601f198416611c1f866119fb565b60005b82811015611c4757848901518255600182019150602085019450602081019050611c22565b86831015611c645784890151611c60601f891682611b6d565b8355505b6001600288020188555050505b505050505050565b7f4e487b7100000000000000000000000000000000000000000000000000000000600052601260045260246000fd5b6000611cb382611203565b9150611cbe83611203565b925082611cce57611ccd611c79565b5b828206905092915050565b6000611ce482611203565b9150611cef83611203565b9250828201905080821115611d0757611d066117bd565b5b92915050565b6000611d1882611203565b9150611d2383611203565b925082611d3357611d32611c79565b5b828204905092915050565b600081905092915050565b7f6b69747479000000000000000000000000000000000000000000000000000000600082015250565b6000611d7f600583611d3e565b9150611d8a82611d49565b600582019050919050565b6000611da082611d72565b9150819050919050565b6000611db5826112a6565b611dbf8185611d3e565b9350611dcf8185602086016112c2565b80840191505092915050565b6000611de78284611daa565b915081905092915050565b6000611dfd82611203565b9150611e0883611203565b9250828203905081811115611e2057611e1f6117bd565b5b92915050565b6000606082019050611e3b6000830186611336565b8181036020830152611e4d81856112fd565b9050611e5c6040830184611336565b949350505050565b7f4e487b7100000000000000000000000000000000000000000000000000000000600052600160045260246000fdfea2646970667358221220d2d061e2f51327fca42eedfc961c814cac73e2b9bfe81bc8ab58a8392c237f4064736f6c63430008130033",
  "immutableReferences": {},
  "source": "// SPDX-License-Identifier: MIT \n\npragma solidity ^0.8.19;\n\nimport \"./ZombieFeeding.sol\"; // importamos el contrato ZombieFactory.sol\n\n\ncontract ZombieHelper is ZombieFeeding {\n\n    // lo que hay que pagar para subir de nivel un zombie\n\n    uint levelUpFee = 0.001 ether;\n\n    /* modifier que utilice la propiedad level del zombi para\n        restringir el acceso a las habilidades especiales\n    */\n\n    modifier aboveLevel(uint _level, uint _zombieId) {\n        require(zombies[_zombieId].level >= _level);\n        _;\n    }\n\n    // funcin que permita al usuario cambiar el nombre de su zombi\n    // solo si el zombi es de nivel 2 o superior\n    // usa el modifier ownerOf para verificar que el usuario sea el dueo del zombi\n\n    function changeName(uint _zombieId, string memory _newName) public aboveLevel(2, _zombieId)  onlyOwnerOf(_zombieId) {\n        // require(msg.sender == zombieToOwner[_zombieId]);\n        zombies[_zombieId].name = _newName;\n    }\n\n    // funcin que permita al usuario cambiar el ADN de su zombi\n    // solo si el zombi es de nivel 20 o superior\n    // usa el modifier ownerOf para verificar que el usuario sea el dueo del zombi\n\n    function changeDna(uint _zombieId, uint _newDna) public aboveLevel(20, _zombieId) onlyOwnerOf(_zombieId){\n        // require(msg.sender == zombieToOwner[_zombieId]);\n        zombies[_zombieId].dna = _newDna;\n    }\n\n    // Las funciones view no cuestan gas cuando son llamadas externamente por un usuario.\n    // Solo se pueden leer datos y no se pueden modificar el estado del contrato.\n    // puedes optimizar el uso de gas de tu DApp haciendo que tus usuarios utilicen funciones external view siempre que sea posible.\n\n    // devuelve el ejercito de un usuario\n    // storage cuesta gas asi que se usa memory\n\n    // con esto nuestra funcin de transferencia ser mucho ms barata, \n    // ya que no necesitamos reordenar ningn array en storage,\n    // y porque este enfoque ligeramente contraintuitivo es integramente ms barato.\n\n    function getZombiesByOwner(address _owner) external view returns (uint[] memory) {\n        uint[] memory result = new uint[](ownerZombieCount[_owner]);\n        uint counter = 0;\n        for (uint i = 0; i < zombies.length; i++) {\n            if (zombieToOwner[i] == _owner) {\n                result[counter] = i;\n                counter++;\n            }\n        }\n        // la funcin ahora devolver todos los zombis del usuario _owner sin gastar nada de gas.\n        return result;\n    }\n\n    /* Digamos que nuestro juego tiene una funcin donde los usuarios pueden pagar\n       ETH para subir el nivel de sus zombie en 1.\n    */\n\n    /* La funcin levelUpToOwner() es una funcin de pago, \n        y el usuario debe enviar un mnimo de 0.001 ETH para subir de nivel a su zombi.\n    */  \n\n    function levelUp(uint _zombieId) external payable {\n        require(msg.value >= levelUpFee);\n        zombies[_zombieId].level++;\n    }\n\n    function setLevelUpFee(uint _fee) external onlyOwner {\n        levelUpFee = _fee;\n    }\n\n    function withdraw() external onlyOwner {\n        address _owner = owner();\n        payable(_owner).transfer(address(this).balance);\n    }\n\n\n\n\n\n}",
  "sourcePath": "/Users/manu/dev/crypto/cryptozombies/truffle/contracts-cryptozombies/contracts/ZombieHelper.sol",
  "compiler": {
    "name": "solc",
    "version": "0.8.19+commit.7dd6d404.Emscripten.clang"
  },
  "schemaVersion": "3.4.16",
  "updatedAt": "2024-06-20T21:57:29.617Z",
  "networkType": "ethereum",
  "devdoc": {
    "kind": "dev",
    "methods": {
      "isOwner()": {
        "returns": {
          "_0": "true if `msg.sender` is the owner of the contract."
        }
      },
      "owner()": {
        "returns": {
          "_0": "the address of the owner."
        }
      },
      "renounceOwnership()": {
        "details": "Allows the current owner to relinquish control of the contract."
      },
      "transferOwnership(address)": {
        "details": "Allows the current owner to transfer control of the contract to a newOwner.",
        "params": {
          "newOwner": "The address to transfer ownership to."
        }
      }
    },
    "version": 1
  },
  "userdoc": {
    "kind": "user",
    "methods": {
      "renounceOwnership()": {
        "notice": "Renouncing to ownership will leave the contract without an owner. It will not be possible to call the functions with the `onlyOwner` modifier anymore."
      }
    },
    "version": 1
  }
}