{
  "contractName": "ZombieFeeding",
  "abi": [
    {
      "anonymous": false,
      "inputs": [
        {
          "indexed": false,
          "internalType": "uint256",
          "name": "zombieId",
          "type": "uint256"
        },
        {
          "indexed": false,
          "internalType": "string",
          "name": "name",
          "type": "string"
        },
        {
          "indexed": false,
          "internalType": "uint256",
          "name": "dna",
          "type": "uint256"
        }
      ],
      "name": "NewZombie",
      "type": "event"
    },
    {
      "anonymous": false,
      "inputs": [
        {
          "indexed": true,
          "internalType": "address",
          "name": "previousOwner",
          "type": "address"
        },
        {
          "indexed": true,
          "internalType": "address",
          "name": "newOwner",
          "type": "address"
        }
      ],
      "name": "OwnershipTransferred",
      "type": "event"
    },
    {
      "inputs": [],
      "name": "_owner",
      "outputs": [
        {
          "internalType": "address",
          "name": "",
          "type": "address"
        }
      ],
      "stateMutability": "view",
      "type": "function",
      "constant": true
    },
    {
      "inputs": [
        {
          "internalType": "string",
          "name": "_name",
          "type": "string"
        }
      ],
      "name": "createRandomZombie",
      "outputs": [],
      "stateMutability": "nonpayable",
      "type": "function"
    },
    {
      "inputs": [],
      "name": "isOwner",
      "outputs": [
        {
          "internalType": "bool",
          "name": "",
          "type": "bool"
        }
      ],
      "stateMutability": "view",
      "type": "function",
      "constant": true
    },
    {
      "inputs": [],
      "name": "owner",
      "outputs": [
        {
          "internalType": "address",
          "name": "",
          "type": "address"
        }
      ],
      "stateMutability": "view",
      "type": "function",
      "constant": true
    },
    {
      "inputs": [],
      "name": "renounceOwnership",
      "outputs": [],
      "stateMutability": "nonpayable",
      "type": "function"
    },
    {
      "inputs": [
        {
          "internalType": "address",
          "name": "newOwner",
          "type": "address"
        }
      ],
      "name": "transferOwnership",
      "outputs": [],
      "stateMutability": "nonpayable",
      "type": "function"
    },
    {
      "inputs": [
        {
          "internalType": "uint256",
          "name": "",
          "type": "uint256"
        }
      ],
      "name": "zombieToOwner",
      "outputs": [
        {
          "internalType": "address",
          "name": "",
          "type": "address"
        }
      ],
      "stateMutability": "view",
      "type": "function",
      "constant": true
    },
    {
      "inputs": [
        {
          "internalType": "uint256",
          "name": "",
          "type": "uint256"
        }
      ],
      "name": "zombies",
      "outputs": [
        {
          "internalType": "string",
          "name": "name",
          "type": "string"
        },
        {
          "internalType": "uint256",
          "name": "dna",
          "type": "uint256"
        },
        {
          "internalType": "uint32",
          "name": "level",
          "type": "uint32"
        },
        {
          "internalType": "uint32",
          "name": "readyTime",
          "type": "uint32"
        },
        {
          "internalType": "uint16",
          "name": "winCount",
          "type": "uint16"
        },
        {
          "internalType": "uint16",
          "name": "lossCount",
          "type": "uint16"
        }
      ],
      "stateMutability": "view",
      "type": "function",
      "constant": true
    },
    {
      "inputs": [
        {
          "internalType": "address",
          "name": "_address",
          "type": "address"
        }
      ],
      "name": "setKittyContractAddress",
      "outputs": [],
      "stateMutability": "nonpayable",
      "type": "function"
    },
    {
      "inputs": [
        {
          "internalType": "uint256",
          "name": "_zombieId",
          "type": "uint256"
        },
        {
          "internalType": "uint256",
          "name": "_kittyId",
          "type": "uint256"
        }
      ],
      "name": "feedOnKitty",
      "outputs": [],
      "stateMutability": "nonpayable",
      "type": "function"
    }
  ],
  "bytecode": "0x60806040526010600155600154600a6200001a919062000280565b600255620151806003553480156200003157600080fd5b50336000806101000a81548173ffffffffffffffffffffffffffffffffffffffff021916908373ffffffffffffffffffffffffffffffffffffffff16021790555060008054906101000a900473ffffffffffffffffffffffffffffffffffffffff1673ffffffffffffffffffffffffffffffffffffffff16600073ffffffffffffffffffffffffffffffffffffffff167f8be0079c531659141344cd1fd0a4f28419497f9722a3daafe3b4186f6b6457e060405160405180910390a3620002d1565b7f4e487b7100000000000000000000000000000000000000000000000000000000600052601160045260246000fd5b60008160011c9050919050565b6000808291508390505b60018511156200018157808604811115620001595762000158620000f3565b5b6001851615620001695780820291505b8081029050620001798562000122565b945062000139565b94509492505050565b6000826200019c57600190506200026f565b81620001ac57600090506200026f565b8160018114620001c55760028114620001d05762000206565b60019150506200026f565b60ff841115620001e557620001e4620000f3565b5b8360020a915084821115620001ff57620001fe620000f3565b5b506200026f565b5060208310610133831016604e8410600b8410161715620002405782820a9050838111156200023a5762000239620000f3565b5b6200026f565b6200024f84848460016200012f565b92509050818404811115620002695762000268620000f3565b5b81810290505b9392505050565b6000819050919050565b60006200028d8262000276565b91506200029a8362000276565b9250620002c97fffffffffffffffffffffffffffffffffffffffffffffffffffffffffffffffff84846200018a565b905092915050565b61173480620002e16000396000f3fe608060405234801561001057600080fd5b506004361061009e5760003560e01c80637bff0a01116100665780637bff0a011461014a5780638da5cb5b146101665780638f32d59b14610184578063b2bdfa7b146101a2578063f2fde38b146101c05761009e565b806317a7f4cc146100a35780632052465e146100bf578063528b7b8f146100f45780635f4623f114610124578063715018a614610140575b600080fd5b6100bd60048036038101906100b89190610c54565b6101dc565b005b6100d960048036038101906100d49190610c94565b6102fa565b6040516100eb96959493929190610d9c565b60405180910390f35b61010e60048036038101906101099190610c94565b61040a565b60405161011b9190610e45565b60405180910390f35b61013e60048036038101906101399190610e8c565b61043d565b005b610148610492565b005b610164600480360381019061015f9190610fee565b610561565b005b61016e61057c565b60405161017b9190610e45565b60405180910390f35b61018c6105a5565b6040516101999190611052565b60405180910390f35b6101aa6105fc565b6040516101b79190610e45565b60405180910390f35b6101da60048036038101906101d59190610e8c565b610620565b005b6000600760009054906101000a900473ffffffffffffffffffffffffffffffffffffffff1673ffffffffffffffffffffffffffffffffffffffff1663e98b7f4d836040518263ffffffff1660e01b8152600401610239919061106d565b61014060405180830381865afa158015610257573d6000803e3d6000fd5b505050506040513d601f19601f8201168201806040525081019061027b91906110c9565b909192939495969798509091929394959697509091929394959650909192939495509091929394509091929350909192509091509050809150506102f583826040518060400160405280600581526020017f6b6974747900000000000000000000000000000000000000000000000000000081525061063d565b505050565b6006818154811061030a57600080fd5b906000526020600020906003020160009150905080600001805461032d906111d7565b80601f0160208091040260200160405190810160405280929190818152602001828054610359906111d7565b80156103a65780601f1061037b576101008083540402835291602001916103a6565b820191906000526020600020905b81548152906001019060200180831161038957829003601f168201915b5050505050908060010154908060020160009054906101000a900463ffffffff16908060020160049054906101000a900463ffffffff16908060020160089054906101000a900461ffff169080600201600a9054906101000a900461ffff16905086565b60046020528060005260406000206000915054906101000a900473ffffffffffffffffffffffffffffffffffffffff1681565b6104456105a5565b61044e57600080fd5b80600760006101000a81548173ffffffffffffffffffffffffffffffffffffffff021916908373ffffffffffffffffffffffffffffffffffffffff16021790555050565b61049a6105a5565b6104a357600080fd5b600073ffffffffffffffffffffffffffffffffffffffff1660008054906101000a900473ffffffffffffffffffffffffffffffffffffffff1673ffffffffffffffffffffffffffffffffffffffff167f8be0079c531659141344cd1fd0a4f28419497f9722a3daafe3b4186f6b6457e060405160405180910390a360008060006101000a81548173ffffffffffffffffffffffffffffffffffffffff021916908373ffffffffffffffffffffffffffffffffffffffff160217905550565b600061056c826107d9565b9050610578828261081e565b5050565b60008060009054906101000a900473ffffffffffffffffffffffffffffffffffffffff16905090565b60008060009054906101000a900473ffffffffffffffffffffffffffffffffffffffff1673ffffffffffffffffffffffffffffffffffffffff163373ffffffffffffffffffffffffffffffffffffffff1614905090565b60008054906101000a900473ffffffffffffffffffffffffffffffffffffffff1681565b6106286105a5565b61063157600080fd5b61063a81610a8e565b50565b826004600082815260200190815260200160002060009054906101000a900473ffffffffffffffffffffffffffffffffffffffff1673ffffffffffffffffffffffffffffffffffffffff163373ffffffffffffffffffffffffffffffffffffffff16146106a957600080fd5b6000600685815481106106bf576106be611208565b5b906000526020600020906003020190506106d881610b84565b6106e157600080fd5b600254846106ef9190611266565b93506000600285836001015461070591906112c6565b61070f91906112fa565b905060405160200161072090611382565b604051602081830303815290604052805190602001208460405160200161074791906113c8565b60405160208183030381529060405280519060200120036107895760636064826107719190611266565b8261077c91906113df565b61078691906112c6565b90505b6107c86040518060400160405280600681526020017f4e6f4e616d6500000000000000000000000000000000000000000000000000008152508261081e565b6107d182610bab565b505050505050565b600080826040516020016107ed91906113c8565b6040516020818303038152906040528051906020012060001c9050600254816108169190611266565b915050919050565b60066040518060c00160405280848152602001838152602001600163ffffffff1681526020016003544261085291906112c6565b63ffffffff168152602001600061ffff168152602001600061ffff16815250908060018154018082558091505060019003906000526020600020906003020160009091909190915060008201518160000190816108af91906115bf565b506020820151816001015560408201518160020160006101000a81548163ffffffff021916908363ffffffff16021790555060608201518160020160046101000a81548163ffffffff021916908363ffffffff16021790555060808201518160020160086101000a81548161ffff021916908361ffff16021790555060a082015181600201600a6101000a81548161ffff021916908361ffff16021790555050506000600160068054905061096491906113df565b9050336004600083815260200190815260200160002060006101000a81548173ffffffffffffffffffffffffffffffffffffffff021916908373ffffffffffffffffffffffffffffffffffffffff160217905550610a0b6001600560003373ffffffffffffffffffffffffffffffffffffffff1673ffffffffffffffffffffffffffffffffffffffff16815260200190815260200160002054610bde90919063ffffffff16565b600560003373ffffffffffffffffffffffffffffffffffffffff1673ffffffffffffffffffffffffffffffffffffffff168152602001908152602001600020819055507f88f026aacbbecc90c18411df4b1185fd8d9be2470f1962f192bf84a27d0704b7818484604051610a8193929190611691565b60405180910390a1505050565b600073ffffffffffffffffffffffffffffffffffffffff168173ffffffffffffffffffffffffffffffffffffffff1603610ac757600080fd5b8073ffffffffffffffffffffffffffffffffffffffff1660008054906101000a900473ffffffffffffffffffffffffffffffffffffffff1673ffffffffffffffffffffffffffffffffffffffff167f8be0079c531659141344cd1fd0a4f28419497f9722a3daafe3b4186f6b6457e060405160405180910390a3806000806101000a81548173ffffffffffffffffffffffffffffffffffffffff021916908373ffffffffffffffffffffffffffffffffffffffff16021790555050565b6000428260020160049054906101000a900463ffffffff1663ffffffff1611159050919050565b60035442610bb991906112c6565b8160020160046101000a81548163ffffffff021916908363ffffffff16021790555050565b6000808284610bed91906112c6565b905083811015610c0057610bff6116cf565b5b8091505092915050565b6000604051905090565b600080fd5b600080fd5b6000819050919050565b610c3181610c1e565b8114610c3c57600080fd5b50565b600081359050610c4e81610c28565b92915050565b60008060408385031215610c6b57610c6a610c14565b5b6000610c7985828601610c3f565b9250506020610c8a85828601610c3f565b9150509250929050565b600060208284031215610caa57610ca9610c14565b5b6000610cb884828501610c3f565b91505092915050565b600081519050919050565b600082825260208201905092915050565b60005b83811015610cfb578082015181840152602081019050610ce0565b60008484015250505050565b6000601f19601f8301169050919050565b6000610d2382610cc1565b610d2d8185610ccc565b9350610d3d818560208601610cdd565b610d4681610d07565b840191505092915050565b610d5a81610c1e565b82525050565b600063ffffffff82169050919050565b610d7981610d60565b82525050565b600061ffff82169050919050565b610d9681610d7f565b82525050565b600060c0820190508181036000830152610db68189610d18565b9050610dc56020830188610d51565b610dd26040830187610d70565b610ddf6060830186610d70565b610dec6080830185610d8d565b610df960a0830184610d8d565b979650505050505050565b600073ffffffffffffffffffffffffffffffffffffffff82169050919050565b6000610e2f82610e04565b9050919050565b610e3f81610e24565b82525050565b6000602082019050610e5a6000830184610e36565b92915050565b610e6981610e24565b8114610e7457600080fd5b50565b600081359050610e8681610e60565b92915050565b600060208284031215610ea257610ea1610c14565b5b6000610eb084828501610e77565b91505092915050565b600080fd5b600080fd5b7f4e487b7100000000000000000000000000000000000000000000000000000000600052604160045260246000fd5b610efb82610d07565b810181811067ffffffffffffffff82111715610f1a57610f19610ec3565b5b80604052505050565b6000610f2d610c0a565b9050610f398282610ef2565b919050565b600067ffffffffffffffff821115610f5957610f58610ec3565b5b610f6282610d07565b9050602081019050919050565b82818337600083830152505050565b6000610f91610f8c84610f3e565b610f23565b905082815260208101848484011115610fad57610fac610ebe565b5b610fb8848285610f6f565b509392505050565b600082601f830112610fd557610fd4610eb9565b5b8135610fe5848260208601610f7e565b91505092915050565b60006020828403121561100457611003610c14565b5b600082013567ffffffffffffffff81111561102257611021610c19565b5b61102e84828501610fc0565b91505092915050565b60008115159050919050565b61104c81611037565b82525050565b60006020820190506110676000830184611043565b92915050565b60006020820190506110826000830184610d51565b92915050565b61109181611037565b811461109c57600080fd5b50565b6000815190506110ae81611088565b92915050565b6000815190506110c381610c28565b92915050565b6000806000806000806000806000806101408b8d0312156110ed576110ec610c14565b5b60006110fb8d828e0161109f565b9a5050602061110c8d828e0161109f565b995050604061111d8d828e016110b4565b985050606061112e8d828e016110b4565b975050608061113f8d828e016110b4565b96505060a06111508d828e016110b4565b95505060c06111618d828e016110b4565b94505060e06111728d828e016110b4565b9350506101006111848d828e016110b4565b9250506101206111968d828e016110b4565b9150509295989b9194979a5092959850565b7f4e487b7100000000000000000000000000000000000000000000000000000000600052602260045260246000fd5b600060028204905060018216806111ef57607f821691505b602082108103611202576112016111a8565b5b50919050565b7f4e487b7100000000000000000000000000000000000000000000000000000000600052603260045260246000fd5b7f4e487b7100000000000000000000000000000000000000000000000000000000600052601260045260246000fd5b600061127182610c1e565b915061127c83610c1e565b92508261128c5761128b611237565b5b828206905092915050565b7f4e487b7100000000000000000000000000000000000000000000000000000000600052601160045260246000fd5b60006112d182610c1e565b91506112dc83610c1e565b92508282019050808211156112f4576112f3611297565b5b92915050565b600061130582610c1e565b915061131083610c1e565b9250826113205761131f611237565b5b828204905092915050565b600081905092915050565b7f6b69747479000000000000000000000000000000000000000000000000000000600082015250565b600061136c60058361132b565b915061137782611336565b600582019050919050565b600061138d8261135f565b9150819050919050565b60006113a282610cc1565b6113ac818561132b565b93506113bc818560208601610cdd565b80840191505092915050565b60006113d48284611397565b915081905092915050565b60006113ea82610c1e565b91506113f583610c1e565b925082820390508181111561140d5761140c611297565b5b92915050565b60008190508160005260206000209050919050565b60006020601f8301049050919050565b600082821b905092915050565b6000600883026114757fffffffffffffffffffffffffffffffffffffffffffffffffffffffffffffffff82611438565b61147f8683611438565b95508019841693508086168417925050509392505050565b6000819050919050565b60006114bc6114b76114b284610c1e565b611497565b610c1e565b9050919050565b6000819050919050565b6114d6836114a1565b6114ea6114e2826114c3565b848454611445565b825550505050565b600090565b6114ff6114f2565b61150a8184846114cd565b505050565b5b8181101561152e576115236000826114f7565b600181019050611510565b5050565b601f8211156115735761154481611413565b61154d84611428565b8101602085101561155c578190505b61157061156885611428565b83018261150f565b50505b505050565b600082821c905092915050565b600061159660001984600802611578565b1980831691505092915050565b60006115af8383611585565b9150826002028217905092915050565b6115c882610cc1565b67ffffffffffffffff8111156115e1576115e0610ec3565b5b6115eb82546111d7565b6115f6828285611532565b600060209050601f8311600181146116295760008415611617578287015190505b61162185826115a3565b865550611689565b601f19841661163786611413565b60005b8281101561165f5784890151825560018201915060208501945060208101905061163a565b8683101561167c5784890151611678601f891682611585565b8355505b6001600288020188555050505b505050505050565b60006060820190506116a66000830186610d51565b81810360208301526116b88185610d18565b90506116c76040830184610d51565b949350505050565b7f4e487b7100000000000000000000000000000000000000000000000000000000600052600160045260246000fdfea26469706673582212209d4a70fa00a66e440e9a6f9fa47dc95396ea4d4605ef5d9f889ff91bce27e24064736f6c63430008130033",
  "immutableReferences": {},
  "source": "// SPDX-License-Identifier: MIT \npragma solidity ^0.8.19; \n\nimport \"./ZombieFactory.sol\"; // importamos el contrato ZombieFactory.sol\n\n/* En Solidity, puedes definir una interfaz que acte como un contrato \n    \"virtual\" definiendo los mtodos que deben ser implementados por un contrato \n    que cumpla con esta interfaz. \n    En este caso, estamos definiendo una interfaz KittyInterface que tiene un \n    mtodo getKitty que devuelve varios valores de un gato de CryptoKitties. \n    No necesitamos definir la lgica de este mtodo aqu, solo necesitamos \n    definir la firma de la funcin (es decir, el nombre de la funcin y los \n    tipos de argumentos que toma y devuelve).\n*/\n\n/* En solidity <0.6 no se necesita abstract ni virtual */\n\nabstract contract KittyInterface { \n  function getKitty(uint256 _id) external view virtual returns (\n    bool isGestating,\n    bool isReady,\n    uint256 cooldownIndex,\n    uint256 nextActionAt,\n    uint256 siringWithId,\n    uint256 birthTime,\n    uint256 matronId,\n    uint256 sireId,\n    uint256 generation,\n    uint256 genes\n  );\n}\n\n\n\n/*  Storage se refiere a las variables guardadas permanentemente\n    en la blockchain. Las variables de tipo memory son temporales, \n    y son borradas en lo que una funcin externa llama a tu contrato. \n    Piensa que es como el disco duro vs la RAM de tu ordenador.\n*/\n\n/*  Las variables de estado (variables declaradas fuera de las funciones) \n    son por defecto del tipo storage y son guardadas permanentemente en\n    la blockchain, mientras que las variables declaradas dentro de las funciones\n    son por defecto del tipo memory y desaparecern una vez la llamada a la \n    funcin haya terminado.\n*/\n\n\ncontract ZombieFeeding is ZombieFactory {\n\n    // no es buena practica setear el ckAddress en el contrato por si este cambia en el futuro\n    // por eso se crea la funcion setKittyContractAddress\n    // address ckAddress = 0x06012c8cf97BEaD5deAe237070F9587f8E7A266d; // Inicializa kittyContract aqu usando el `ckAddress` de arriba\n    \n    KittyInterface kittyContract; // = KittyInterface(ckAddress);\n\n    // onlyOwner es un modificador que solo permite que el propietario del contrato ejecute la funcin\n    // se hereda de OpenZeppelin_Ownable.sol\n\n    // el codigo de onlyOwner es un modificador, y se ejecutara antes de la funcin a la que se le aplica\n\n    function setKittyContractAddress(address _address) external  onlyOwner {\n        kittyContract = KittyInterface(_address);\n    }\n    \n    /*  en Solidity 0.5.0 y versiones posteriores,\n        los parmetros de tipo string, arrays y structs deben especificar\n        explcitamente su ubicacin de datos (memory o calldata)\n    */\n\n    /*  Alimentarse activa el enfriamiento del zombi, \n        y solo el propietario del zombi puede alimentarlo. \n        Los zombis no podrn alimentarse de gatitos hasta que su \n        periodo de enfriamiento haya concluido\n    */\n\n    /*  Si nos damos cuenta, esta funcin solo necesita ser llamada por feedOnKitty(),\n        as que la manera ms fcil de prevenir estos problemas es hacer \n        la funcin internal.\n    */\n\n    /* ownerOf es un modificador que solo permite que el propietario\n       del zombi ejecute la funcin, esta defido al final del contrato \n    */\n\n    function feedAndMultiply(uint _zombieId, uint _targetDna, string memory _species) internal onlyOwnerOf(_zombieId){\n        // no es necesatio esto porque se usa el modifier ownerOf\n        // require(msg.sender == zombieToOwner[_zombieId]); // solo el dueo del zombi puede llamar a esta funcin\n        \n        Zombie storage myZombie = zombies[_zombieId]; // almacenamos el zombi en la memoria\n        \n        //  el usuario solo podr ejecutar esta funcin si el enfriamiento del zombi ha terminado.\n\n        require (_isReady(myZombie)); // solo puede alimentarse si est listo   \n        \n        _targetDna = _targetDna % dnaModulus; // nos aseguramos de que _targetDna no sea mayor que dnaModulus\n        uint newDna = (myZombie.dna + uint(_targetDna)) / 2;\n\n\n        /*  compara los hashes keccak256 de _species y el string \"kitty\".\n            Dentro de la sentencia if, queremos reemplazar los ltimos 2 dgitos \n            del ADN con 99. Una manera de hacer esto es usando la lgica:\n            newDna = newDna - newDna % 100 + 99;.\n            Pongamos que newDna es 334455. Entonces newDna % 100 es 55,\n            as quenewDna - newDna % 100 es 334400. Finalmente aadimos 99 \n            para conseguir 334499.\n        */\n\n        if (keccak256(abi.encodePacked(_species)) == keccak256(abi.encodePacked(\"kitty\"))) {\n            newDna = newDna - newDna % 100 + 99;\n        }\n\n        _createZombie(\"NoName\", newDna);\n\n        _triggerCooldown(myZombie); // activa el enfriamiento del zombi\n    }\n\n    /*  Vamos a hacer una funcin que recoga los genes del gato del contrato\n        (kittyContract) y los use para crear un nuevo zombi.\n    */\n\n    /*  Vamos a hacer que los zombis creados a partir de gatos tengan una \n        nica caracterstica que muestre que son gato-zombis.\n        Para hacer esto, debemos aadir algo de cdigo del gato en el ADN del zombi.\n        Estamos solo usando los primeros 12 dgitos de los 16 dgitos que determinan\n        el ADN de la apariencia de un zombi.\n        As que vamos a usar los ltimos 2 dgitos para manejar esas caractersticas\n        \"especiales\". Diremos que los gato-zombis tienen 99 en los ltimos dos dgitos \n        de su ADN (debido a que tienen 9 vidas). Entonces en nuestro cdigo, \n        diremos que si (if) un zombi viene de un gato, los ltimos dos dgitos \n        de su ADN sern 99.\n    */\n\n    function feedOnKitty(uint _zombieId, uint _kittyId) public {\n        uint kittyDna;\n        (,,,,,,,,,kittyDna) = kittyContract.getKitty(_kittyId); // Almacenamos el ADN del gato en kittyDna\n        feedAndMultiply(_zombieId, kittyDna, \"kitty\"); // Creamos un nuevo zombi con el ADN del gato\n    }   \n\n    /* Puedes pasar un puntero storage a una estructura \n       como argumento a una funcin private o internal. Esto es prctico, \n       por ejemplo, para pasar entre funciones la estructura de nuestro Zombie.\n    */\n\n    function _triggerCooldown(Zombie storage _zombie) internal {\n        _zombie.readyTime = uint32(block.timestamp + cooldownTime);\n    }   \n\n    function _isReady(Zombie storage _zombie) internal view returns (bool) {\n        return (_zombie.readyTime <= block.timestamp);\n    }\n\n    /* el modificador ownerOf solo permite\n     que el propietario del zombi ejecute la funcin */\n\n    modifier onlyOwnerOf(uint _zombieId) {\n    require(msg.sender == zombieToOwner[_zombieId]);\n    _;\n  }\n\n}",
  "sourcePath": "/Users/manu/dev/crypto/cryptozombies/truffle/contracts-cryptozombies/contracts/ZombieFeeding.sol",
  "compiler": {
    "name": "solc",
    "version": "0.8.19+commit.7dd6d404.Emscripten.clang"
  },
  "schemaVersion": "3.4.16",
  "updatedAt": "2024-06-20T21:57:29.605Z",
  "networkType": "ethereum",
  "devdoc": {
    "kind": "dev",
    "methods": {
      "isOwner()": {
        "returns": {
          "_0": "true if `msg.sender` is the owner of the contract."
        }
      },
      "owner()": {
        "returns": {
          "_0": "the address of the owner."
        }
      },
      "renounceOwnership()": {
        "details": "Allows the current owner to relinquish control of the contract."
      },
      "transferOwnership(address)": {
        "details": "Allows the current owner to transfer control of the contract to a newOwner.",
        "params": {
          "newOwner": "The address to transfer ownership to."
        }
      }
    },
    "version": 1
  },
  "userdoc": {
    "kind": "user",
    "methods": {
      "renounceOwnership()": {
        "notice": "Renouncing to ownership will leave the contract without an owner. It will not be possible to call the functions with the `onlyOwner` modifier anymore."
      }
    },
    "version": 1
  }
}