{
  "contractName": "ZombieAttack",
  "abi": [
    {
      "anonymous": false,
      "inputs": [
        {
          "indexed": false,
          "internalType": "uint256",
          "name": "zombieId",
          "type": "uint256"
        },
        {
          "indexed": false,
          "internalType": "string",
          "name": "name",
          "type": "string"
        },
        {
          "indexed": false,
          "internalType": "uint256",
          "name": "dna",
          "type": "uint256"
        }
      ],
      "name": "NewZombie",
      "type": "event"
    },
    {
      "anonymous": false,
      "inputs": [
        {
          "indexed": true,
          "internalType": "address",
          "name": "previousOwner",
          "type": "address"
        },
        {
          "indexed": true,
          "internalType": "address",
          "name": "newOwner",
          "type": "address"
        }
      ],
      "name": "OwnershipTransferred",
      "type": "event"
    },
    {
      "inputs": [],
      "name": "_owner",
      "outputs": [
        {
          "internalType": "address",
          "name": "",
          "type": "address"
        }
      ],
      "stateMutability": "view",
      "type": "function",
      "constant": true
    },
    {
      "inputs": [
        {
          "internalType": "uint256",
          "name": "_zombieId",
          "type": "uint256"
        },
        {
          "internalType": "uint256",
          "name": "_newDna",
          "type": "uint256"
        }
      ],
      "name": "changeDna",
      "outputs": [],
      "stateMutability": "nonpayable",
      "type": "function"
    },
    {
      "inputs": [
        {
          "internalType": "uint256",
          "name": "_zombieId",
          "type": "uint256"
        },
        {
          "internalType": "string",
          "name": "_newName",
          "type": "string"
        }
      ],
      "name": "changeName",
      "outputs": [],
      "stateMutability": "nonpayable",
      "type": "function"
    },
    {
      "inputs": [
        {
          "internalType": "string",
          "name": "_name",
          "type": "string"
        }
      ],
      "name": "createRandomZombie",
      "outputs": [],
      "stateMutability": "nonpayable",
      "type": "function"
    },
    {
      "inputs": [
        {
          "internalType": "uint256",
          "name": "_zombieId",
          "type": "uint256"
        },
        {
          "internalType": "uint256",
          "name": "_kittyId",
          "type": "uint256"
        }
      ],
      "name": "feedOnKitty",
      "outputs": [],
      "stateMutability": "nonpayable",
      "type": "function"
    },
    {
      "inputs": [
        {
          "internalType": "address",
          "name": "_owner",
          "type": "address"
        }
      ],
      "name": "getZombiesByOwner",
      "outputs": [
        {
          "internalType": "uint256[]",
          "name": "",
          "type": "uint256[]"
        }
      ],
      "stateMutability": "view",
      "type": "function",
      "constant": true
    },
    {
      "inputs": [],
      "name": "isOwner",
      "outputs": [
        {
          "internalType": "bool",
          "name": "",
          "type": "bool"
        }
      ],
      "stateMutability": "view",
      "type": "function",
      "constant": true
    },
    {
      "inputs": [
        {
          "internalType": "uint256",
          "name": "_zombieId",
          "type": "uint256"
        }
      ],
      "name": "levelUp",
      "outputs": [],
      "stateMutability": "payable",
      "type": "function",
      "payable": true
    },
    {
      "inputs": [],
      "name": "owner",
      "outputs": [
        {
          "internalType": "address",
          "name": "",
          "type": "address"
        }
      ],
      "stateMutability": "view",
      "type": "function",
      "constant": true
    },
    {
      "inputs": [],
      "name": "renounceOwnership",
      "outputs": [],
      "stateMutability": "nonpayable",
      "type": "function"
    },
    {
      "inputs": [
        {
          "internalType": "address",
          "name": "_address",
          "type": "address"
        }
      ],
      "name": "setKittyContractAddress",
      "outputs": [],
      "stateMutability": "nonpayable",
      "type": "function"
    },
    {
      "inputs": [
        {
          "internalType": "uint256",
          "name": "_fee",
          "type": "uint256"
        }
      ],
      "name": "setLevelUpFee",
      "outputs": [],
      "stateMutability": "nonpayable",
      "type": "function"
    },
    {
      "inputs": [
        {
          "internalType": "address",
          "name": "newOwner",
          "type": "address"
        }
      ],
      "name": "transferOwnership",
      "outputs": [],
      "stateMutability": "nonpayable",
      "type": "function"
    },
    {
      "inputs": [],
      "name": "withdraw",
      "outputs": [],
      "stateMutability": "nonpayable",
      "type": "function"
    },
    {
      "inputs": [
        {
          "internalType": "uint256",
          "name": "",
          "type": "uint256"
        }
      ],
      "name": "zombieToOwner",
      "outputs": [
        {
          "internalType": "address",
          "name": "",
          "type": "address"
        }
      ],
      "stateMutability": "view",
      "type": "function",
      "constant": true
    },
    {
      "inputs": [
        {
          "internalType": "uint256",
          "name": "",
          "type": "uint256"
        }
      ],
      "name": "zombies",
      "outputs": [
        {
          "internalType": "string",
          "name": "name",
          "type": "string"
        },
        {
          "internalType": "uint256",
          "name": "dna",
          "type": "uint256"
        },
        {
          "internalType": "uint32",
          "name": "level",
          "type": "uint32"
        },
        {
          "internalType": "uint32",
          "name": "readyTime",
          "type": "uint32"
        },
        {
          "internalType": "uint16",
          "name": "winCount",
          "type": "uint16"
        },
        {
          "internalType": "uint16",
          "name": "lossCount",
          "type": "uint16"
        }
      ],
      "stateMutability": "view",
      "type": "function",
      "constant": true
    },
    {
      "inputs": [
        {
          "internalType": "uint256",
          "name": "_zombieId",
          "type": "uint256"
        },
        {
          "internalType": "uint256",
          "name": "_targetId",
          "type": "uint256"
        }
      ],
      "name": "attack",
      "outputs": [],
      "stateMutability": "nonpayable",
      "type": "function"
    }
  ],
  "bytecode": "0x60806040526010600155600154600a6200001a919062000295565b6002556201518060035566038d7ea4c6800060085560006009556046600a553480156200004657600080fd5b50336000806101000a81548173ffffffffffffffffffffffffffffffffffffffff021916908373ffffffffffffffffffffffffffffffffffffffff16021790555060008054906101000a900473ffffffffffffffffffffffffffffffffffffffff1673ffffffffffffffffffffffffffffffffffffffff16600073ffffffffffffffffffffffffffffffffffffffff167f8be0079c531659141344cd1fd0a4f28419497f9722a3daafe3b4186f6b6457e060405160405180910390a3620002e6565b7f4e487b7100000000000000000000000000000000000000000000000000000000600052601160045260246000fd5b60008160011c9050919050565b6000808291508390505b600185111562000196578086048111156200016e576200016d62000108565b5b60018516156200017e5780820291505b80810290506200018e8562000137565b94506200014e565b94509492505050565b600082620001b1576001905062000284565b81620001c1576000905062000284565b8160018114620001da5760028114620001e5576200021b565b600191505062000284565b60ff841115620001fa57620001f962000108565b5b8360020a91508482111562000214576200021362000108565b5b5062000284565b5060208310610133831016604e8410600b8410161715620002555782820a9050838111156200024f576200024e62000108565b5b62000284565b62000264848484600162000144565b925090508184048111156200027e576200027d62000108565b5b81810290505b9392505050565b6000819050919050565b6000620002a2826200028b565b9150620002af836200028b565b9250620002de7fffffffffffffffffffffffffffffffffffffffffffffffffffffffffffffffff84846200019f565b905092915050565b61237780620002f66000396000f3fe6080604052600436106100fe5760003560e01c8063715018a611610095578063b2bdfa7b11610064578063b2bdfa7b14610303578063c39cbef11461032e578063ccf670f814610357578063e1fa763814610380578063f2fde38b146103a9576100fe565b8063715018a61461026d5780637bff0a01146102845780638da5cb5b146102ad5780638f32d59b146102d8576100fe565b80634412e104116100d15780634412e104146101a1578063528b7b8f146101de5780635f4623f11461021b5780635faf288014610244576100fe565b80630ce90ec21461010357806317a7f4cc1461011f5780632052465e146101485780633ccfd60b1461018a575b600080fd5b61011d600480360381019061011891906115d3565b6103d2565b005b34801561012b57600080fd5b5061014660048036038101906101419190611600565b610448565b005b34801561015457600080fd5b5061016f600480360381019061016a91906115d3565b610566565b6040516101819695949392919061171b565b60405180910390f35b34801561019657600080fd5b5061019f610676565b005b3480156101ad57600080fd5b506101c860048036038101906101c391906117e1565b6106dd565b6040516101d591906118cc565b60405180910390f35b3480156101ea57600080fd5b50610205600480360381019061020091906115d3565b61082f565b60405161021291906118fd565b60405180910390f35b34801561022757600080fd5b50610242600480360381019061023d91906117e1565b610862565b005b34801561025057600080fd5b5061026b60048036038101906102669190611600565b6108b7565b005b34801561027957600080fd5b5061028261099f565b005b34801561029057600080fd5b506102ab60048036038101906102a69190611a4d565b610a6e565b005b3480156102b957600080fd5b506102c2610a89565b6040516102cf91906118fd565b60405180910390f35b3480156102e457600080fd5b506102ed610ab2565b6040516102fa9190611ab1565b60405180910390f35b34801561030f57600080fd5b50610318610b09565b60405161032591906118fd565b60405180910390f35b34801561033a57600080fd5b5061035560048036038101906103509190611acc565b610b2d565b005b34801561036357600080fd5b5061037e600480360381019061037991906115d3565b610c1e565b005b34801561038c57600080fd5b506103a760048036038101906103a29190611600565b610c39565b005b3480156103b557600080fd5b506103d060048036038101906103cb91906117e1565b610ed3565b005b6008543410156103e157600080fd5b600681815481106103f5576103f4611b28565b5b9060005260206000209060030201600201600081819054906101000a900463ffffffff168092919061042690611b86565b91906101000a81548163ffffffff021916908363ffffffff1602179055505050565b6000600760009054906101000a900473ffffffffffffffffffffffffffffffffffffffff1673ffffffffffffffffffffffffffffffffffffffff1663e98b7f4d836040518263ffffffff1660e01b81526004016104a59190611bb2565b61014060405180830381865afa1580156104c3573d6000803e3d6000fd5b505050506040513d601f19601f820116820180604052508101906104e79190611c0e565b9091929394959697985090919293949596975090919293949596509091929394955090919293945090919293509091925090915090508091505061056183826040518060400160405280600581526020017f6b69747479000000000000000000000000000000000000000000000000000000815250610ef0565b505050565b6006818154811061057657600080fd5b906000526020600020906003020160009150905080600001805461059990611d1c565b80601f01602080910402602001604051908101604052809291908181526020018280546105c590611d1c565b80156106125780601f106105e757610100808354040283529160200191610612565b820191906000526020600020905b8154815290600101906020018083116105f557829003601f168201915b5050505050908060010154908060020160009054906101000a900463ffffffff16908060020160049054906101000a900463ffffffff16908060020160089054906101000a900461ffff169080600201600a9054906101000a900461ffff16905086565b61067e610ab2565b61068757600080fd5b6000610691610a89565b90508073ffffffffffffffffffffffffffffffffffffffff166108fc479081150290604051600060405180830381858888f193505050501580156106d9573d6000803e3d6000fd5b5050565b60606000600560008473ffffffffffffffffffffffffffffffffffffffff1673ffffffffffffffffffffffffffffffffffffffff1681526020019081526020016000205467ffffffffffffffff81111561073a57610739611922565b5b6040519080825280602002602001820160405280156107685781602001602082028036833780820191505090505b5090506000805b600680549050811015610824578473ffffffffffffffffffffffffffffffffffffffff166004600083815260200190815260200160002060009054906101000a900473ffffffffffffffffffffffffffffffffffffffff1673ffffffffffffffffffffffffffffffffffffffff160361081157808383815181106107f6576107f5611b28565b5b602002602001018181525050818061080d90611d4d565b9250505b808061081c90611d4d565b91505061076f565b508192505050919050565b60046020528060005260406000206000915054906101000a900473ffffffffffffffffffffffffffffffffffffffff1681565b61086a610ab2565b61087357600080fd5b80600760006101000a81548173ffffffffffffffffffffffffffffffffffffffff021916908373ffffffffffffffffffffffffffffffffffffffff16021790555050565b60148281600682815481106108cf576108ce611b28565b5b906000526020600020906003020160020160009054906101000a900463ffffffff1663ffffffff16101561090257600080fd5b836004600082815260200190815260200160002060009054906101000a900473ffffffffffffffffffffffffffffffffffffffff1673ffffffffffffffffffffffffffffffffffffffff163373ffffffffffffffffffffffffffffffffffffffff161461096e57600080fd5b836006868154811061098357610982611b28565b5b9060005260206000209060030201600101819055505050505050565b6109a7610ab2565b6109b057600080fd5b600073ffffffffffffffffffffffffffffffffffffffff1660008054906101000a900473ffffffffffffffffffffffffffffffffffffffff1673ffffffffffffffffffffffffffffffffffffffff167f8be0079c531659141344cd1fd0a4f28419497f9722a3daafe3b4186f6b6457e060405160405180910390a360008060006101000a81548173ffffffffffffffffffffffffffffffffffffffff021916908373ffffffffffffffffffffffffffffffffffffffff160217905550565b6000610a798261108c565b9050610a8582826110d1565b5050565b60008060009054906101000a900473ffffffffffffffffffffffffffffffffffffffff16905090565b60008060009054906101000a900473ffffffffffffffffffffffffffffffffffffffff1673ffffffffffffffffffffffffffffffffffffffff163373ffffffffffffffffffffffffffffffffffffffff1614905090565b60008054906101000a900473ffffffffffffffffffffffffffffffffffffffff1681565b6002828160068281548110610b4557610b44611b28565b5b906000526020600020906003020160020160009054906101000a900463ffffffff1663ffffffff161015610b7857600080fd5b836004600082815260200190815260200160002060009054906101000a900473ffffffffffffffffffffffffffffffffffffffff1673ffffffffffffffffffffffffffffffffffffffff163373ffffffffffffffffffffffffffffffffffffffff1614610be457600080fd5b8360068681548110610bf957610bf8611b28565b5b90600052602060002090600302016000019081610c169190611f41565b505050505050565b610c26610ab2565b610c2f57600080fd5b8060088190555050565b816004600082815260200190815260200160002060009054906101000a900473ffffffffffffffffffffffffffffffffffffffff1673ffffffffffffffffffffffffffffffffffffffff163373ffffffffffffffffffffffffffffffffffffffff1614610ca557600080fd5b600060068481548110610cbb57610cba611b28565b5b90600052602060002090600302019050600060068481548110610ce157610ce0611b28565b5b906000526020600020906003020190506000610cfd6064611341565b9050600a548111610e3157610d3260018460020160089054906101000a900461ffff1661ffff166113a190919063ffffffff16565b8360020160086101000a81548161ffff021916908361ffff160217905550610d7e60018460020160009054906101000a900463ffffffff1663ffffffff166113d590919063ffffffff16565b8360020160006101000a81548163ffffffff021916908363ffffffff160217905550610dca600183600201600a9054906101000a900461ffff1661ffff166113a190919063ffffffff16565b82600201600a6101000a81548161ffff021916908361ffff160217905550610e2c8683600101546040518060400160405280600681526020017f7a6f6d6269650000000000000000000000000000000000000000000000000000815250610ef0565b610ecb565b610e5b600184600201600a9054906101000a900461ffff1661ffff166113a190919063ffffffff16565b83600201600a6101000a81548161ffff021916908361ffff160217905550610ea360018360020160089054906101000a900461ffff1661ffff166113a190919063ffffffff16565b8260020160086101000a81548161ffff021916908361ffff160217905550610eca8361140d565b5b505050505050565b610edb610ab2565b610ee457600080fd5b610eed81611440565b50565b826004600082815260200190815260200160002060009054906101000a900473ffffffffffffffffffffffffffffffffffffffff1673ffffffffffffffffffffffffffffffffffffffff163373ffffffffffffffffffffffffffffffffffffffff1614610f5c57600080fd5b600060068581548110610f7257610f71611b28565b5b90600052602060002090600302019050610f8b81611536565b610f9457600080fd5b60025484610fa29190612042565b935060006002858360010154610fb89190612073565b610fc291906120a7565b9050604051602001610fd39061212f565b6040516020818303038152906040528051906020012084604051602001610ffa9190612175565b604051602081830303815290604052805190602001200361103c5760636064826110249190612042565b8261102f919061218c565b6110399190612073565b90505b61107b6040518060400160405280600681526020017f4e6f4e616d650000000000000000000000000000000000000000000000000000815250826110d1565b6110848261140d565b505050505050565b600080826040516020016110a09190612175565b6040516020818303038152906040528051906020012060001c9050600254816110c99190612042565b915050919050565b60066040518060c00160405280848152602001838152602001600163ffffffff168152602001600354426111059190612073565b63ffffffff168152602001600061ffff168152602001600061ffff16815250908060018154018082558091505060019003906000526020600020906003020160009091909190915060008201518160000190816111629190611f41565b506020820151816001015560408201518160020160006101000a81548163ffffffff021916908363ffffffff16021790555060608201518160020160046101000a81548163ffffffff021916908363ffffffff16021790555060808201518160020160086101000a81548161ffff021916908361ffff16021790555060a082015181600201600a6101000a81548161ffff021916908361ffff160217905550505060006001600680549050611217919061218c565b9050336004600083815260200190815260200160002060006101000a81548173ffffffffffffffffffffffffffffffffffffffff021916908373ffffffffffffffffffffffffffffffffffffffff1602179055506112be6001600560003373ffffffffffffffffffffffffffffffffffffffff1673ffffffffffffffffffffffffffffffffffffffff1681526020019081526020016000205461155d90919063ffffffff16565b600560003373ffffffffffffffffffffffffffffffffffffffff1673ffffffffffffffffffffffffffffffffffffffff168152602001908152602001600020819055507f88f026aacbbecc90c18411df4b1185fd8d9be2470f1962f192bf84a27d0704b7818484604051611334939291906121c0565b60405180910390a1505050565b6000611359600160095461155d90919063ffffffff16565b60098190555081423360095460405160200161137793929190612267565b6040516020818303038152906040528051906020012060001c61139a9190612042565b9050919050565b60008082846113b091906122a4565b90508361ffff168161ffff1610156113cb576113ca6122da565b5b8091505092915050565b60008082846113e49190612309565b90508363ffffffff168163ffffffff161015611403576114026122da565b5b8091505092915050565b6003544261141b9190612073565b8160020160046101000a81548163ffffffff021916908363ffffffff16021790555050565b600073ffffffffffffffffffffffffffffffffffffffff168173ffffffffffffffffffffffffffffffffffffffff160361147957600080fd5b8073ffffffffffffffffffffffffffffffffffffffff1660008054906101000a900473ffffffffffffffffffffffffffffffffffffffff1673ffffffffffffffffffffffffffffffffffffffff167f8be0079c531659141344cd1fd0a4f28419497f9722a3daafe3b4186f6b6457e060405160405180910390a3806000806101000a81548173ffffffffffffffffffffffffffffffffffffffff021916908373ffffffffffffffffffffffffffffffffffffffff16021790555050565b6000428260020160049054906101000a900463ffffffff1663ffffffff1611159050919050565b600080828461156c9190612073565b90508381101561157f5761157e6122da565b5b8091505092915050565b6000604051905090565b600080fd5b600080fd5b6000819050919050565b6115b08161159d565b81146115bb57600080fd5b50565b6000813590506115cd816115a7565b92915050565b6000602082840312156115e9576115e8611593565b5b60006115f7848285016115be565b91505092915050565b6000806040838503121561161757611616611593565b5b6000611625858286016115be565b9250506020611636858286016115be565b9150509250929050565b600081519050919050565b600082825260208201905092915050565b60005b8381101561167a57808201518184015260208101905061165f565b60008484015250505050565b6000601f19601f8301169050919050565b60006116a282611640565b6116ac818561164b565b93506116bc81856020860161165c565b6116c581611686565b840191505092915050565b6116d98161159d565b82525050565b600063ffffffff82169050919050565b6116f8816116df565b82525050565b600061ffff82169050919050565b611715816116fe565b82525050565b600060c08201905081810360008301526117358189611697565b905061174460208301886116d0565b61175160408301876116ef565b61175e60608301866116ef565b61176b608083018561170c565b61177860a083018461170c565b979650505050505050565b600073ffffffffffffffffffffffffffffffffffffffff82169050919050565b60006117ae82611783565b9050919050565b6117be816117a3565b81146117c957600080fd5b50565b6000813590506117db816117b5565b92915050565b6000602082840312156117f7576117f6611593565b5b6000611805848285016117cc565b91505092915050565b600081519050919050565b600082825260208201905092915050565b6000819050602082019050919050565b6118438161159d565b82525050565b6000611855838361183a565b60208301905092915050565b6000602082019050919050565b60006118798261180e565b6118838185611819565b935061188e8361182a565b8060005b838110156118bf5781516118a68882611849565b97506118b183611861565b925050600181019050611892565b5085935050505092915050565b600060208201905081810360008301526118e6818461186e565b905092915050565b6118f7816117a3565b82525050565b600060208201905061191260008301846118ee565b92915050565b600080fd5b600080fd5b7f4e487b7100000000000000000000000000000000000000000000000000000000600052604160045260246000fd5b61195a82611686565b810181811067ffffffffffffffff8211171561197957611978611922565b5b80604052505050565b600061198c611589565b90506119988282611951565b919050565b600067ffffffffffffffff8211156119b8576119b7611922565b5b6119c182611686565b9050602081019050919050565b82818337600083830152505050565b60006119f06119eb8461199d565b611982565b905082815260208101848484011115611a0c57611a0b61191d565b5b611a178482856119ce565b509392505050565b600082601f830112611a3457611a33611918565b5b8135611a448482602086016119dd565b91505092915050565b600060208284031215611a6357611a62611593565b5b600082013567ffffffffffffffff811115611a8157611a80611598565b5b611a8d84828501611a1f565b91505092915050565b60008115159050919050565b611aab81611a96565b82525050565b6000602082019050611ac66000830184611aa2565b92915050565b60008060408385031215611ae357611ae2611593565b5b6000611af1858286016115be565b925050602083013567ffffffffffffffff811115611b1257611b11611598565b5b611b1e85828601611a1f565b9150509250929050565b7f4e487b7100000000000000000000000000000000000000000000000000000000600052603260045260246000fd5b7f4e487b7100000000000000000000000000000000000000000000000000000000600052601160045260246000fd5b6000611b91826116df565b915063ffffffff8203611ba757611ba6611b57565b5b600182019050919050565b6000602082019050611bc760008301846116d0565b92915050565b611bd681611a96565b8114611be157600080fd5b50565b600081519050611bf381611bcd565b92915050565b600081519050611c08816115a7565b92915050565b6000806000806000806000806000806101408b8d031215611c3257611c31611593565b5b6000611c408d828e01611be4565b9a50506020611c518d828e01611be4565b9950506040611c628d828e01611bf9565b9850506060611c738d828e01611bf9565b9750506080611c848d828e01611bf9565b96505060a0611c958d828e01611bf9565b95505060c0611ca68d828e01611bf9565b94505060e0611cb78d828e01611bf9565b935050610100611cc98d828e01611bf9565b925050610120611cdb8d828e01611bf9565b9150509295989b9194979a5092959850565b7f4e487b7100000000000000000000000000000000000000000000000000000000600052602260045260246000fd5b60006002820490506001821680611d3457607f821691505b602082108103611d4757611d46611ced565b5b50919050565b6000611d588261159d565b91507fffffffffffffffffffffffffffffffffffffffffffffffffffffffffffffffff8203611d8a57611d89611b57565b5b600182019050919050565b60008190508160005260206000209050919050565b60006020601f8301049050919050565b600082821b905092915050565b600060088302611df77fffffffffffffffffffffffffffffffffffffffffffffffffffffffffffffffff82611dba565b611e018683611dba565b95508019841693508086168417925050509392505050565b6000819050919050565b6000611e3e611e39611e348461159d565b611e19565b61159d565b9050919050565b6000819050919050565b611e5883611e23565b611e6c611e6482611e45565b848454611dc7565b825550505050565b600090565b611e81611e74565b611e8c818484611e4f565b505050565b5b81811015611eb057611ea5600082611e79565b600181019050611e92565b5050565b601f821115611ef557611ec681611d95565b611ecf84611daa565b81016020851015611ede578190505b611ef2611eea85611daa565b830182611e91565b50505b505050565b600082821c905092915050565b6000611f1860001984600802611efa565b1980831691505092915050565b6000611f318383611f07565b9150826002028217905092915050565b611f4a82611640565b67ffffffffffffffff811115611f6357611f62611922565b5b611f6d8254611d1c565b611f78828285611eb4565b600060209050601f831160018114611fab5760008415611f99578287015190505b611fa38582611f25565b86555061200b565b601f198416611fb986611d95565b60005b82811015611fe157848901518255600182019150602085019450602081019050611fbc565b86831015611ffe5784890151611ffa601f891682611f07565b8355505b6001600288020188555050505b505050505050565b7f4e487b7100000000000000000000000000000000000000000000000000000000600052601260045260246000fd5b600061204d8261159d565b91506120588361159d565b92508261206857612067612013565b5b828206905092915050565b600061207e8261159d565b91506120898361159d565b92508282019050808211156120a1576120a0611b57565b5b92915050565b60006120b28261159d565b91506120bd8361159d565b9250826120cd576120cc612013565b5b828204905092915050565b600081905092915050565b7f6b69747479000000000000000000000000000000000000000000000000000000600082015250565b60006121196005836120d8565b9150612124826120e3565b600582019050919050565b600061213a8261210c565b9150819050919050565b600061214f82611640565b61215981856120d8565b935061216981856020860161165c565b80840191505092915050565b60006121818284612144565b915081905092915050565b60006121978261159d565b91506121a28361159d565b92508282039050818111156121ba576121b9611b57565b5b92915050565b60006060820190506121d560008301866116d0565b81810360208301526121e78185611697565b90506121f660408301846116d0565b949350505050565b6000819050919050565b6122196122148261159d565b6121fe565b82525050565b60008160601b9050919050565b60006122378261221f565b9050919050565b60006122498261222c565b9050919050565b61226161225c826117a3565b61223e565b82525050565b60006122738286612208565b6020820191506122838285612250565b6014820191506122938284612208565b602082019150819050949350505050565b60006122af826116fe565b91506122ba836116fe565b9250828201905061ffff8111156122d4576122d3611b57565b5b92915050565b7f4e487b7100000000000000000000000000000000000000000000000000000000600052600160045260246000fd5b6000612314826116df565b915061231f836116df565b9250828201905063ffffffff81111561233b5761233a611b57565b5b9291505056fea26469706673582212201905c7e1568c90cd921971cd576f9b6b2a40453189e15e4d708d66fb11a3126f64736f6c63430008130033",
  "immutableReferences": {},
  "source": "// SPDX-License-Identifier: MIT \n\npragma solidity ^0.8.19;\n\nimport \"./ZombieHelper.sol\";\nimport \"./safemath.sol\";\n\ncontract ZombieAttack is ZombieHelper {\n\n    using SafeMath for uint256;\n    using SafeMath32 for uint32;\n    using SafeMath16 for uint16;\n\n    uint randNonce = 0;\n    uint attackVictoryProbability = 70;\n\n\n    function randMod(uint _modulus) internal returns(uint) {\n        randNonce = randNonce.add(1);\n        return uint(keccak256(abi.encodePacked(block.timestamp, msg.sender, randNonce))) % _modulus;\n    }\n\n    function attack(uint _zombieId, uint _targetId) external onlyOwnerOf(_zombieId){\n        // require(msg.sender == zombieToOwner[_zombieId]);\n        Zombie storage myZombie = zombies[_zombieId];\n        Zombie storage enemyZombie = zombies[_targetId];\n        uint rand = randMod(100);\n        if (rand <= attackVictoryProbability) {\n            myZombie.winCount = myZombie.winCount.add(1);\n            myZombie.level = myZombie.level.add(1);\n            enemyZombie.lossCount = enemyZombie.lossCount.add(1);\n            feedAndMultiply(_zombieId, enemyZombie.dna, \"zombie\");\n        } else {\n            myZombie.lossCount = myZombie.lossCount.add(1);\n            enemyZombie.winCount = enemyZombie.winCount.add(1);\n            _triggerCooldown(myZombie);\n        }\n    }\n}",
  "sourcePath": "/Users/manu/dev/crypto/cryptozombies/truffle/contracts-cryptozombies/contracts/ZombieAttack.sol",
  "compiler": {
    "name": "solc",
    "version": "0.8.19+commit.7dd6d404.Emscripten.clang"
  },
  "schemaVersion": "3.4.16",
  "updatedAt": "2024-06-20T21:57:29.586Z",
  "networkType": "ethereum",
  "devdoc": {
    "kind": "dev",
    "methods": {
      "isOwner()": {
        "returns": {
          "_0": "true if `msg.sender` is the owner of the contract."
        }
      },
      "owner()": {
        "returns": {
          "_0": "the address of the owner."
        }
      },
      "renounceOwnership()": {
        "details": "Allows the current owner to relinquish control of the contract."
      },
      "transferOwnership(address)": {
        "details": "Allows the current owner to transfer control of the contract to a newOwner.",
        "params": {
          "newOwner": "The address to transfer ownership to."
        }
      }
    },
    "version": 1
  },
  "userdoc": {
    "kind": "user",
    "methods": {
      "renounceOwnership()": {
        "notice": "Renouncing to ownership will leave the contract without an owner. It will not be possible to call the functions with the `onlyOwner` modifier anymore."
      }
    },
    "version": 1
  }
}