{
  "contractName": "ZombieOwnership",
  "abi": [
    {
      "anonymous": false,
      "inputs": [
        {
          "indexed": true,
          "internalType": "address",
          "name": "_owner",
          "type": "address"
        },
        {
          "indexed": true,
          "internalType": "address",
          "name": "_approved",
          "type": "address"
        },
        {
          "indexed": true,
          "internalType": "uint256",
          "name": "_tokenId",
          "type": "uint256"
        }
      ],
      "name": "Approval",
      "type": "event"
    },
    {
      "anonymous": false,
      "inputs": [
        {
          "indexed": false,
          "internalType": "uint256",
          "name": "zombieId",
          "type": "uint256"
        },
        {
          "indexed": false,
          "internalType": "string",
          "name": "name",
          "type": "string"
        },
        {
          "indexed": false,
          "internalType": "uint256",
          "name": "dna",
          "type": "uint256"
        }
      ],
      "name": "NewZombie",
      "type": "event"
    },
    {
      "anonymous": false,
      "inputs": [
        {
          "indexed": true,
          "internalType": "address",
          "name": "previousOwner",
          "type": "address"
        },
        {
          "indexed": true,
          "internalType": "address",
          "name": "newOwner",
          "type": "address"
        }
      ],
      "name": "OwnershipTransferred",
      "type": "event"
    },
    {
      "anonymous": false,
      "inputs": [
        {
          "indexed": true,
          "internalType": "address",
          "name": "_from",
          "type": "address"
        },
        {
          "indexed": true,
          "internalType": "address",
          "name": "_to",
          "type": "address"
        },
        {
          "indexed": true,
          "internalType": "uint256",
          "name": "_tokenId",
          "type": "uint256"
        }
      ],
      "name": "Transfer",
      "type": "event"
    },
    {
      "inputs": [],
      "name": "_owner",
      "outputs": [
        {
          "internalType": "address",
          "name": "",
          "type": "address"
        }
      ],
      "stateMutability": "view",
      "type": "function",
      "constant": true
    },
    {
      "inputs": [
        {
          "internalType": "uint256",
          "name": "_zombieId",
          "type": "uint256"
        },
        {
          "internalType": "uint256",
          "name": "_targetId",
          "type": "uint256"
        }
      ],
      "name": "attack",
      "outputs": [],
      "stateMutability": "nonpayable",
      "type": "function"
    },
    {
      "inputs": [
        {
          "internalType": "uint256",
          "name": "_zombieId",
          "type": "uint256"
        },
        {
          "internalType": "uint256",
          "name": "_newDna",
          "type": "uint256"
        }
      ],
      "name": "changeDna",
      "outputs": [],
      "stateMutability": "nonpayable",
      "type": "function"
    },
    {
      "inputs": [
        {
          "internalType": "uint256",
          "name": "_zombieId",
          "type": "uint256"
        },
        {
          "internalType": "string",
          "name": "_newName",
          "type": "string"
        }
      ],
      "name": "changeName",
      "outputs": [],
      "stateMutability": "nonpayable",
      "type": "function"
    },
    {
      "inputs": [
        {
          "internalType": "string",
          "name": "_name",
          "type": "string"
        }
      ],
      "name": "createRandomZombie",
      "outputs": [],
      "stateMutability": "nonpayable",
      "type": "function"
    },
    {
      "inputs": [
        {
          "internalType": "uint256",
          "name": "_zombieId",
          "type": "uint256"
        },
        {
          "internalType": "uint256",
          "name": "_kittyId",
          "type": "uint256"
        }
      ],
      "name": "feedOnKitty",
      "outputs": [],
      "stateMutability": "nonpayable",
      "type": "function"
    },
    {
      "inputs": [
        {
          "internalType": "address",
          "name": "_owner",
          "type": "address"
        }
      ],
      "name": "getZombiesByOwner",
      "outputs": [
        {
          "internalType": "uint256[]",
          "name": "",
          "type": "uint256[]"
        }
      ],
      "stateMutability": "view",
      "type": "function",
      "constant": true
    },
    {
      "inputs": [],
      "name": "isOwner",
      "outputs": [
        {
          "internalType": "bool",
          "name": "",
          "type": "bool"
        }
      ],
      "stateMutability": "view",
      "type": "function",
      "constant": true
    },
    {
      "inputs": [
        {
          "internalType": "uint256",
          "name": "_zombieId",
          "type": "uint256"
        }
      ],
      "name": "levelUp",
      "outputs": [],
      "stateMutability": "payable",
      "type": "function",
      "payable": true
    },
    {
      "inputs": [],
      "name": "owner",
      "outputs": [
        {
          "internalType": "address",
          "name": "",
          "type": "address"
        }
      ],
      "stateMutability": "view",
      "type": "function",
      "constant": true
    },
    {
      "inputs": [],
      "name": "renounceOwnership",
      "outputs": [],
      "stateMutability": "nonpayable",
      "type": "function"
    },
    {
      "inputs": [
        {
          "internalType": "address",
          "name": "_address",
          "type": "address"
        }
      ],
      "name": "setKittyContractAddress",
      "outputs": [],
      "stateMutability": "nonpayable",
      "type": "function"
    },
    {
      "inputs": [
        {
          "internalType": "uint256",
          "name": "_fee",
          "type": "uint256"
        }
      ],
      "name": "setLevelUpFee",
      "outputs": [],
      "stateMutability": "nonpayable",
      "type": "function"
    },
    {
      "inputs": [
        {
          "internalType": "address",
          "name": "newOwner",
          "type": "address"
        }
      ],
      "name": "transferOwnership",
      "outputs": [],
      "stateMutability": "nonpayable",
      "type": "function"
    },
    {
      "inputs": [],
      "name": "withdraw",
      "outputs": [],
      "stateMutability": "nonpayable",
      "type": "function"
    },
    {
      "inputs": [
        {
          "internalType": "uint256",
          "name": "",
          "type": "uint256"
        }
      ],
      "name": "zombieToOwner",
      "outputs": [
        {
          "internalType": "address",
          "name": "",
          "type": "address"
        }
      ],
      "stateMutability": "view",
      "type": "function",
      "constant": true
    },
    {
      "inputs": [
        {
          "internalType": "uint256",
          "name": "",
          "type": "uint256"
        }
      ],
      "name": "zombies",
      "outputs": [
        {
          "internalType": "string",
          "name": "name",
          "type": "string"
        },
        {
          "internalType": "uint256",
          "name": "dna",
          "type": "uint256"
        },
        {
          "internalType": "uint32",
          "name": "level",
          "type": "uint32"
        },
        {
          "internalType": "uint32",
          "name": "readyTime",
          "type": "uint32"
        },
        {
          "internalType": "uint16",
          "name": "winCount",
          "type": "uint16"
        },
        {
          "internalType": "uint16",
          "name": "lossCount",
          "type": "uint16"
        }
      ],
      "stateMutability": "view",
      "type": "function",
      "constant": true
    },
    {
      "inputs": [
        {
          "internalType": "address",
          "name": "_owner",
          "type": "address"
        }
      ],
      "name": "balanceOf",
      "outputs": [
        {
          "internalType": "uint256",
          "name": "",
          "type": "uint256"
        }
      ],
      "stateMutability": "view",
      "type": "function",
      "constant": true
    },
    {
      "inputs": [
        {
          "internalType": "uint256",
          "name": "_tokenId",
          "type": "uint256"
        }
      ],
      "name": "ownerOf",
      "outputs": [
        {
          "internalType": "address",
          "name": "",
          "type": "address"
        }
      ],
      "stateMutability": "view",
      "type": "function",
      "constant": true
    },
    {
      "inputs": [
        {
          "internalType": "address",
          "name": "_from",
          "type": "address"
        },
        {
          "internalType": "address",
          "name": "_to",
          "type": "address"
        },
        {
          "internalType": "uint256",
          "name": "_tokenId",
          "type": "uint256"
        }
      ],
      "name": "transferFrom",
      "outputs": [],
      "stateMutability": "payable",
      "type": "function",
      "payable": true
    },
    {
      "inputs": [
        {
          "internalType": "address",
          "name": "_approved",
          "type": "address"
        },
        {
          "internalType": "uint256",
          "name": "_tokenId",
          "type": "uint256"
        }
      ],
      "name": "approve",
      "outputs": [],
      "stateMutability": "payable",
      "type": "function",
      "payable": true
    },
    {
      "inputs": [
        {
          "internalType": "address",
          "name": "_to",
          "type": "address"
        },
        {
          "internalType": "uint256",
          "name": "_tokenId",
          "type": "uint256"
        }
      ],
      "name": "transfer",
      "outputs": [],
      "stateMutability": "payable",
      "type": "function",
      "payable": true
    }
  ],
  "bytecode": "0x60806040526010600155600154600a6200001a919062000295565b6002556201518060035566038d7ea4c6800060085560006009556046600a553480156200004657600080fd5b50336000806101000a81548173ffffffffffffffffffffffffffffffffffffffff021916908373ffffffffffffffffffffffffffffffffffffffff16021790555060008054906101000a900473ffffffffffffffffffffffffffffffffffffffff1673ffffffffffffffffffffffffffffffffffffffff16600073ffffffffffffffffffffffffffffffffffffffff167f8be0079c531659141344cd1fd0a4f28419497f9722a3daafe3b4186f6b6457e060405160405180910390a3620002e6565b7f4e487b7100000000000000000000000000000000000000000000000000000000600052601160045260246000fd5b60008160011c9050919050565b6000808291508390505b600185111562000196578086048111156200016e576200016d62000108565b5b60018516156200017e5780820291505b80810290506200018e8562000137565b94506200014e565b94509492505050565b600082620001b1576001905062000284565b81620001c1576000905062000284565b8160018114620001da5760028114620001e5576200021b565b600191505062000284565b60ff841115620001fa57620001f962000108565b5b8360020a91508482111562000214576200021362000108565b5b5062000284565b5060208310610133831016604e8410600b8410161715620002555782820a9050838111156200024f576200024e62000108565b5b62000284565b62000264848484600162000144565b925090508184048111156200027e576200027d62000108565b5b81810290505b9392505050565b6000819050919050565b6000620002a2826200028b565b9150620002af836200028b565b9250620002de7fffffffffffffffffffffffffffffffffffffffffffffffffffffffffffffffff84846200019f565b905092915050565b612df580620002f66000396000f3fe6080604052600436106101355760003560e01c806370a08231116100ab578063a9059cbb1161006f578063a9059cbb146103ec578063b2bdfa7b14610408578063c39cbef114610433578063ccf670f81461045c578063e1fa763814610485578063f2fde38b146104ae57610135565b806370a0823114610319578063715018a6146103565780637bff0a011461036d5780638da5cb5b146103965780638f32d59b146103c157610135565b80633ccfd60b116100fd5780633ccfd60b146101f95780634412e10414610210578063528b7b8f1461024d5780635f4623f11461028a5780635faf2880146102b35780636352211e146102dc57610135565b8063095ea7b31461013a5780630ce90ec21461015657806317a7f4cc146101725780632052465e1461019b57806323b872dd146101dd575b600080fd5b610154600480360381019061014f9190611dfa565b6104d7565b005b610170600480360381019061016b9190611e3a565b610696565b005b34801561017e57600080fd5b5061019960048036038101906101949190611e67565b61070c565b005b3480156101a757600080fd5b506101c260048036038101906101bd9190611e3a565b61082a565b6040516101d496959493929190611f82565b60405180910390f35b6101f760048036038101906101f29190611fea565b61093a565b005b34801561020557600080fd5b5061020e610b64565b005b34801561021c57600080fd5b506102376004803603810190610232919061203d565b610bcb565b6040516102449190612128565b60405180910390f35b34801561025957600080fd5b50610274600480360381019061026f9190611e3a565b610d1d565b6040516102819190612159565b60405180910390f35b34801561029657600080fd5b506102b160048036038101906102ac919061203d565b610d50565b005b3480156102bf57600080fd5b506102da60048036038101906102d59190611e67565b610da5565b005b3480156102e857600080fd5b5061030360048036038101906102fe9190611e3a565b610e8d565b6040516103109190612159565b60405180910390f35b34801561032557600080fd5b50610340600480360381019061033b919061203d565b610eca565b60405161034d9190612174565b60405180910390f35b34801561036257600080fd5b5061036b610f13565b005b34801561037957600080fd5b50610394600480360381019061038f91906122c4565b610fe2565b005b3480156103a257600080fd5b506103ab611049565b6040516103b89190612159565b60405180910390f35b3480156103cd57600080fd5b506103d6611072565b6040516103e39190612328565b60405180910390f35b61040660048036038101906104019190611dfa565b6110c9565b005b34801561041457600080fd5b5061041d6110cd565b60405161042a9190612159565b60405180910390f35b34801561043f57600080fd5b5061045a60048036038101906104559190612343565b6110f1565b005b34801561046857600080fd5b50610483600480360381019061047e9190611e3a565b6111e2565b005b34801561049157600080fd5b506104ac60048036038101906104a79190611e67565b6111fd565b005b3480156104ba57600080fd5b506104d560048036038101906104d0919061203d565b611497565b005b806004600082815260200190815260200160002060009054906101000a900473ffffffffffffffffffffffffffffffffffffffff1673ffffffffffffffffffffffffffffffffffffffff163373ffffffffffffffffffffffffffffffffffffffff161461054357600080fd5b3373ffffffffffffffffffffffffffffffffffffffff166004600084815260200190815260200160002060009054906101000a900473ffffffffffffffffffffffffffffffffffffffff1673ffffffffffffffffffffffffffffffffffffffff16146105e4576040517f08c379a00000000000000000000000000000000000000000000000000000000081526004016105db906123eb565b60405180910390fd5b82600b600084815260200190815260200160002060006101000a81548173ffffffffffffffffffffffffffffffffffffffff021916908373ffffffffffffffffffffffffffffffffffffffff160217905550818373ffffffffffffffffffffffffffffffffffffffff163373ffffffffffffffffffffffffffffffffffffffff167f8c5be1e5ebec7d5bd14f71427d1e84f3dd0314c0f7b2291e5b200ac8c7c3b92560405160405180910390a4505050565b6008543410156106a557600080fd5b600681815481106106b9576106b861240b565b5b9060005260206000209060030201600201600081819054906101000a900463ffffffff16809291906106ea90612469565b91906101000a81548163ffffffff021916908363ffffffff1602179055505050565b6000600760009054906101000a900473ffffffffffffffffffffffffffffffffffffffff1673ffffffffffffffffffffffffffffffffffffffff1663e98b7f4d836040518263ffffffff1660e01b81526004016107699190612174565b61014060405180830381865afa158015610787573d6000803e3d6000fd5b505050506040513d601f19601f820116820180604052508101906107ab91906124d6565b9091929394959697985090919293949596975090919293949596509091929394955090919293945090919293509091925090915090508091505061082583826040518060400160405280600581526020017f6b697474790000000000000000000000000000000000000000000000000000008152506114b4565b505050565b6006818154811061083a57600080fd5b906000526020600020906003020160009150905080600001805461085d906125e4565b80601f0160208091040260200160405190810160405280929190818152602001828054610889906125e4565b80156108d65780601f106108ab576101008083540402835291602001916108d6565b820191906000526020600020905b8154815290600101906020018083116108b957829003601f168201915b5050505050908060010154908060020160009054906101000a900463ffffffff16908060020160049054906101000a900463ffffffff16908060020160089054906101000a900461ffff169080600201600a9054906101000a900461ffff16905086565b3373ffffffffffffffffffffffffffffffffffffffff166004600083815260200190815260200160002060009054906101000a900473ffffffffffffffffffffffffffffffffffffffff1673ffffffffffffffffffffffffffffffffffffffff161480610a0557503373ffffffffffffffffffffffffffffffffffffffff16600b600083815260200190815260200160002060009054906101000a900473ffffffffffffffffffffffffffffffffffffffff1673ffffffffffffffffffffffffffffffffffffffff16145b610a44576040517f08c379a0000000000000000000000000000000000000000000000000000000008152600401610a3b90612687565b60405180910390fd5b8273ffffffffffffffffffffffffffffffffffffffff166004600083815260200190815260200160002060009054906101000a900473ffffffffffffffffffffffffffffffffffffffff1673ffffffffffffffffffffffffffffffffffffffff1614610ae5576040517f08c379a0000000000000000000000000000000000000000000000000000000008152600401610adc90612719565b60405180910390fd5b600073ffffffffffffffffffffffffffffffffffffffff168273ffffffffffffffffffffffffffffffffffffffff1603610b54576040517f08c379a0000000000000000000000000000000000000000000000000000000008152600401610b4b906127ab565b60405180910390fd5b610b5f838383611650565b505050565b610b6c611072565b610b7557600080fd5b6000610b7f611049565b90508073ffffffffffffffffffffffffffffffffffffffff166108fc479081150290604051600060405180830381858888f19350505050158015610bc7573d6000803e3d6000fd5b5050565b60606000600560008473ffffffffffffffffffffffffffffffffffffffff1673ffffffffffffffffffffffffffffffffffffffff1681526020019081526020016000205467ffffffffffffffff811115610c2857610c27612199565b5b604051908082528060200260200182016040528015610c565781602001602082028036833780820191505090505b5090506000805b600680549050811015610d12578473ffffffffffffffffffffffffffffffffffffffff166004600083815260200190815260200160002060009054906101000a900473ffffffffffffffffffffffffffffffffffffffff1673ffffffffffffffffffffffffffffffffffffffff1603610cff5780838381518110610ce457610ce361240b565b5b6020026020010181815250508180610cfb906127cb565b9250505b8080610d0a906127cb565b915050610c5d565b508192505050919050565b60046020528060005260406000206000915054906101000a900473ffffffffffffffffffffffffffffffffffffffff1681565b610d58611072565b610d6157600080fd5b80600760006101000a81548173ffffffffffffffffffffffffffffffffffffffff021916908373ffffffffffffffffffffffffffffffffffffffff16021790555050565b6014828160068281548110610dbd57610dbc61240b565b5b906000526020600020906003020160020160009054906101000a900463ffffffff1663ffffffff161015610df057600080fd5b836004600082815260200190815260200160002060009054906101000a900473ffffffffffffffffffffffffffffffffffffffff1673ffffffffffffffffffffffffffffffffffffffff163373ffffffffffffffffffffffffffffffffffffffff1614610e5c57600080fd5b8360068681548110610e7157610e7061240b565b5b9060005260206000209060030201600101819055505050505050565b60006004600083815260200190815260200160002060009054906101000a900473ffffffffffffffffffffffffffffffffffffffff169050919050565b6000600560008373ffffffffffffffffffffffffffffffffffffffff1673ffffffffffffffffffffffffffffffffffffffff168152602001908152602001600020549050919050565b610f1b611072565b610f2457600080fd5b600073ffffffffffffffffffffffffffffffffffffffff1660008054906101000a900473ffffffffffffffffffffffffffffffffffffffff1673ffffffffffffffffffffffffffffffffffffffff167f8be0079c531659141344cd1fd0a4f28419497f9722a3daafe3b4186f6b6457e060405160405180910390a360008060006101000a81548173ffffffffffffffffffffffffffffffffffffffff021916908373ffffffffffffffffffffffffffffffffffffffff160217905550565b6000600560003373ffffffffffffffffffffffffffffffffffffffff1673ffffffffffffffffffffffffffffffffffffffff168152602001908152602001600020541461102e57600080fd5b60006110398261182e565b90506110458282611873565b5050565b60008060009054906101000a900473ffffffffffffffffffffffffffffffffffffffff16905090565b60008060009054906101000a900473ffffffffffffffffffffffffffffffffffffffff1673ffffffffffffffffffffffffffffffffffffffff163373ffffffffffffffffffffffffffffffffffffffff1614905090565b5050565b60008054906101000a900473ffffffffffffffffffffffffffffffffffffffff1681565b60028281600682815481106111095761110861240b565b5b906000526020600020906003020160020160009054906101000a900463ffffffff1663ffffffff16101561113c57600080fd5b836004600082815260200190815260200160002060009054906101000a900473ffffffffffffffffffffffffffffffffffffffff1673ffffffffffffffffffffffffffffffffffffffff163373ffffffffffffffffffffffffffffffffffffffff16146111a857600080fd5b83600686815481106111bd576111bc61240b565b5b906000526020600020906003020160000190816111da91906129bf565b505050505050565b6111ea611072565b6111f357600080fd5b8060088190555050565b816004600082815260200190815260200160002060009054906101000a900473ffffffffffffffffffffffffffffffffffffffff1673ffffffffffffffffffffffffffffffffffffffff163373ffffffffffffffffffffffffffffffffffffffff161461126957600080fd5b60006006848154811061127f5761127e61240b565b5b906000526020600020906003020190506000600684815481106112a5576112a461240b565b5b9060005260206000209060030201905060006112c16064611ae3565b9050600a5481116113f5576112f660018460020160089054906101000a900461ffff1661ffff16611b4390919063ffffffff16565b8360020160086101000a81548161ffff021916908361ffff16021790555061134260018460020160009054906101000a900463ffffffff1663ffffffff16611b7790919063ffffffff16565b8360020160006101000a81548163ffffffff021916908363ffffffff16021790555061138e600183600201600a9054906101000a900461ffff1661ffff16611b4390919063ffffffff16565b82600201600a6101000a81548161ffff021916908361ffff1602179055506113f08683600101546040518060400160405280600681526020017f7a6f6d62696500000000000000000000000000000000000000000000000000008152506114b4565b61148f565b61141f600184600201600a9054906101000a900461ffff1661ffff16611b4390919063ffffffff16565b83600201600a6101000a81548161ffff021916908361ffff16021790555061146760018360020160089054906101000a900461ffff1661ffff16611b4390919063ffffffff16565b8260020160086101000a81548161ffff021916908361ffff16021790555061148e83611baf565b5b505050505050565b61149f611072565b6114a857600080fd5b6114b181611be2565b50565b826004600082815260200190815260200160002060009054906101000a900473ffffffffffffffffffffffffffffffffffffffff1673ffffffffffffffffffffffffffffffffffffffff163373ffffffffffffffffffffffffffffffffffffffff161461152057600080fd5b6000600685815481106115365761153561240b565b5b9060005260206000209060030201905061154f81611cd8565b61155857600080fd5b600254846115669190612ac0565b93506000600285836001015461157c9190612af1565b6115869190612b25565b905060405160200161159790612bad565b60405160208183030381529060405280519060200120846040516020016115be9190612bf3565b60405160208183030381529060405280519060200120036116005760636064826115e89190612ac0565b826115f39190612c0a565b6115fd9190612af1565b90505b61163f6040518060400160405280600681526020017f4e6f4e616d65000000000000000000000000000000000000000000000000000081525082611873565b61164882611baf565b505050505050565b6116a36001600560008573ffffffffffffffffffffffffffffffffffffffff1673ffffffffffffffffffffffffffffffffffffffff16815260200190815260200160002054611cff90919063ffffffff16565b600560008473ffffffffffffffffffffffffffffffffffffffff1673ffffffffffffffffffffffffffffffffffffffff168152602001908152602001600020819055506117396001600560008673ffffffffffffffffffffffffffffffffffffffff1673ffffffffffffffffffffffffffffffffffffffff16815260200190815260200160002054611d2b90919063ffffffff16565b600560008573ffffffffffffffffffffffffffffffffffffffff1673ffffffffffffffffffffffffffffffffffffffff16815260200190815260200160002081905550816004600083815260200190815260200160002060006101000a81548173ffffffffffffffffffffffffffffffffffffffff021916908373ffffffffffffffffffffffffffffffffffffffff160217905550808273ffffffffffffffffffffffffffffffffffffffff168473ffffffffffffffffffffffffffffffffffffffff167fddf252ad1be2c89b69c2b068fc378daa952ba7f163c4a11628f55a4df523b3ef60405160405180910390a4505050565b600080826040516020016118429190612bf3565b6040516020818303038152906040528051906020012060001c90506002548161186b9190612ac0565b915050919050565b60066040518060c00160405280848152602001838152602001600163ffffffff168152602001600354426118a79190612af1565b63ffffffff168152602001600061ffff168152602001600061ffff168152509080600181540180825580915050600190039060005260206000209060030201600090919091909150600082015181600001908161190491906129bf565b506020820151816001015560408201518160020160006101000a81548163ffffffff021916908363ffffffff16021790555060608201518160020160046101000a81548163ffffffff021916908363ffffffff16021790555060808201518160020160086101000a81548161ffff021916908361ffff16021790555060a082015181600201600a6101000a81548161ffff021916908361ffff1602179055505050600060016006805490506119b99190612c0a565b9050336004600083815260200190815260200160002060006101000a81548173ffffffffffffffffffffffffffffffffffffffff021916908373ffffffffffffffffffffffffffffffffffffffff160217905550611a606001600560003373ffffffffffffffffffffffffffffffffffffffff1673ffffffffffffffffffffffffffffffffffffffff16815260200190815260200160002054611cff90919063ffffffff16565b600560003373ffffffffffffffffffffffffffffffffffffffff1673ffffffffffffffffffffffffffffffffffffffff168152602001908152602001600020819055507f88f026aacbbecc90c18411df4b1185fd8d9be2470f1962f192bf84a27d0704b7818484604051611ad693929190612c3e565b60405180910390a1505050565b6000611afb6001600954611cff90919063ffffffff16565b600981905550814233600954604051602001611b1993929190612ce5565b6040516020818303038152906040528051906020012060001c611b3c9190612ac0565b9050919050565b6000808284611b529190612d22565b90508361ffff168161ffff161015611b6d57611b6c612d58565b5b8091505092915050565b6000808284611b869190612d87565b90508363ffffffff168163ffffffff161015611ba557611ba4612d58565b5b8091505092915050565b60035442611bbd9190612af1565b8160020160046101000a81548163ffffffff021916908363ffffffff16021790555050565b600073ffffffffffffffffffffffffffffffffffffffff168173ffffffffffffffffffffffffffffffffffffffff1603611c1b57600080fd5b8073ffffffffffffffffffffffffffffffffffffffff1660008054906101000a900473ffffffffffffffffffffffffffffffffffffffff1673ffffffffffffffffffffffffffffffffffffffff167f8be0079c531659141344cd1fd0a4f28419497f9722a3daafe3b4186f6b6457e060405160405180910390a3806000806101000a81548173ffffffffffffffffffffffffffffffffffffffff021916908373ffffffffffffffffffffffffffffffffffffffff16021790555050565b6000428260020160049054906101000a900463ffffffff1663ffffffff1611159050919050565b6000808284611d0e9190612af1565b905083811015611d2157611d20612d58565b5b8091505092915050565b600082821115611d3e57611d3d612d58565b5b8183611d4a9190612c0a565b905092915050565b6000604051905090565b600080fd5b600080fd5b600073ffffffffffffffffffffffffffffffffffffffff82169050919050565b6000611d9182611d66565b9050919050565b611da181611d86565b8114611dac57600080fd5b50565b600081359050611dbe81611d98565b92915050565b6000819050919050565b611dd781611dc4565b8114611de257600080fd5b50565b600081359050611df481611dce565b92915050565b60008060408385031215611e1157611e10611d5c565b5b6000611e1f85828601611daf565b9250506020611e3085828601611de5565b9150509250929050565b600060208284031215611e5057611e4f611d5c565b5b6000611e5e84828501611de5565b91505092915050565b60008060408385031215611e7e57611e7d611d5c565b5b6000611e8c85828601611de5565b9250506020611e9d85828601611de5565b9150509250929050565b600081519050919050565b600082825260208201905092915050565b60005b83811015611ee1578082015181840152602081019050611ec6565b60008484015250505050565b6000601f19601f8301169050919050565b6000611f0982611ea7565b611f138185611eb2565b9350611f23818560208601611ec3565b611f2c81611eed565b840191505092915050565b611f4081611dc4565b82525050565b600063ffffffff82169050919050565b611f5f81611f46565b82525050565b600061ffff82169050919050565b611f7c81611f65565b82525050565b600060c0820190508181036000830152611f9c8189611efe565b9050611fab6020830188611f37565b611fb86040830187611f56565b611fc56060830186611f56565b611fd26080830185611f73565b611fdf60a0830184611f73565b979650505050505050565b60008060006060848603121561200357612002611d5c565b5b600061201186828701611daf565b935050602061202286828701611daf565b925050604061203386828701611de5565b9150509250925092565b60006020828403121561205357612052611d5c565b5b600061206184828501611daf565b91505092915050565b600081519050919050565b600082825260208201905092915050565b6000819050602082019050919050565b61209f81611dc4565b82525050565b60006120b18383612096565b60208301905092915050565b6000602082019050919050565b60006120d58261206a565b6120df8185612075565b93506120ea83612086565b8060005b8381101561211b57815161210288826120a5565b975061210d836120bd565b9250506001810190506120ee565b5085935050505092915050565b6000602082019050818103600083015261214281846120ca565b905092915050565b61215381611d86565b82525050565b600060208201905061216e600083018461214a565b92915050565b60006020820190506121896000830184611f37565b92915050565b600080fd5b600080fd5b7f4e487b7100000000000000000000000000000000000000000000000000000000600052604160045260246000fd5b6121d182611eed565b810181811067ffffffffffffffff821117156121f0576121ef612199565b5b80604052505050565b6000612203611d52565b905061220f82826121c8565b919050565b600067ffffffffffffffff82111561222f5761222e612199565b5b61223882611eed565b9050602081019050919050565b82818337600083830152505050565b600061226761226284612214565b6121f9565b90508281526020810184848401111561228357612282612194565b5b61228e848285612245565b509392505050565b600082601f8301126122ab576122aa61218f565b5b81356122bb848260208601612254565b91505092915050565b6000602082840312156122da576122d9611d5c565b5b600082013567ffffffffffffffff8111156122f8576122f7611d61565b5b61230484828501612296565b91505092915050565b60008115159050919050565b6123228161230d565b82525050565b600060208201905061233d6000830184612319565b92915050565b6000806040838503121561235a57612359611d5c565b5b600061236885828601611de5565b925050602083013567ffffffffffffffff81111561238957612388611d61565b5b61239585828601612296565b9150509250929050565b7f4e6f7420617574686f72697a656420746f20617070726f766500000000000000600082015250565b60006123d5601983611eb2565b91506123e08261239f565b602082019050919050565b60006020820190508181036000830152612404816123c8565b9050919050565b7f4e487b7100000000000000000000000000000000000000000000000000000000600052603260045260246000fd5b7f4e487b7100000000000000000000000000000000000000000000000000000000600052601160045260246000fd5b600061247482611f46565b915063ffffffff820361248a5761248961243a565b5b600182019050919050565b61249e8161230d565b81146124a957600080fd5b50565b6000815190506124bb81612495565b92915050565b6000815190506124d081611dce565b92915050565b6000806000806000806000806000806101408b8d0312156124fa576124f9611d5c565b5b60006125088d828e016124ac565b9a505060206125198d828e016124ac565b995050604061252a8d828e016124c1565b985050606061253b8d828e016124c1565b975050608061254c8d828e016124c1565b96505060a061255d8d828e016124c1565b95505060c061256e8d828e016124c1565b94505060e061257f8d828e016124c1565b9350506101006125918d828e016124c1565b9250506101206125a38d828e016124c1565b9150509295989b9194979a5092959850565b7f4e487b7100000000000000000000000000000000000000000000000000000000600052602260045260246000fd5b600060028204905060018216806125fc57607f821691505b60208210810361260f5761260e6125b5565b5b50919050565b7f4e6f7420617574686f72697a656420746f207472616e7366657220746869732060008201527f746f6b656e000000000000000000000000000000000000000000000000000000602082015250565b6000612671602583611eb2565b915061267c82612615565b604082019050919050565b600060208201905081810360008301526126a081612664565b9050919050565b7f46726f6d206164647265737320646f6573206e6f74206f776e2074686973207460008201527f6f6b656e00000000000000000000000000000000000000000000000000000000602082015250565b6000612703602483611eb2565b915061270e826126a7565b604082019050919050565b60006020820190508181036000830152612732816126f6565b9050919050565b7f43616e6e6f74207472616e7366657220746f20746865207a65726f206164647260008201527f6573730000000000000000000000000000000000000000000000000000000000602082015250565b6000612795602383611eb2565b91506127a082612739565b604082019050919050565b600060208201905081810360008301526127c481612788565b9050919050565b60006127d682611dc4565b91507fffffffffffffffffffffffffffffffffffffffffffffffffffffffffffffffff82036128085761280761243a565b5b600182019050919050565b60008190508160005260206000209050919050565b60006020601f8301049050919050565b600082821b905092915050565b6000600883026128757fffffffffffffffffffffffffffffffffffffffffffffffffffffffffffffffff82612838565b61287f8683612838565b95508019841693508086168417925050509392505050565b6000819050919050565b60006128bc6128b76128b284611dc4565b612897565b611dc4565b9050919050565b6000819050919050565b6128d6836128a1565b6128ea6128e2826128c3565b848454612845565b825550505050565b600090565b6128ff6128f2565b61290a8184846128cd565b505050565b5b8181101561292e576129236000826128f7565b600181019050612910565b5050565b601f8211156129735761294481612813565b61294d84612828565b8101602085101561295c578190505b61297061296885612828565b83018261290f565b50505b505050565b600082821c905092915050565b600061299660001984600802612978565b1980831691505092915050565b60006129af8383612985565b9150826002028217905092915050565b6129c882611ea7565b67ffffffffffffffff8111156129e1576129e0612199565b5b6129eb82546125e4565b6129f6828285612932565b600060209050601f831160018114612a295760008415612a17578287015190505b612a2185826129a3565b865550612a89565b601f198416612a3786612813565b60005b82811015612a5f57848901518255600182019150602085019450602081019050612a3a565b86831015612a7c5784890151612a78601f891682612985565b8355505b6001600288020188555050505b505050505050565b7f4e487b7100000000000000000000000000000000000000000000000000000000600052601260045260246000fd5b6000612acb82611dc4565b9150612ad683611dc4565b925082612ae657612ae5612a91565b5b828206905092915050565b6000612afc82611dc4565b9150612b0783611dc4565b9250828201905080821115612b1f57612b1e61243a565b5b92915050565b6000612b3082611dc4565b9150612b3b83611dc4565b925082612b4b57612b4a612a91565b5b828204905092915050565b600081905092915050565b7f6b69747479000000000000000000000000000000000000000000000000000000600082015250565b6000612b97600583612b56565b9150612ba282612b61565b600582019050919050565b6000612bb882612b8a565b9150819050919050565b6000612bcd82611ea7565b612bd78185612b56565b9350612be7818560208601611ec3565b80840191505092915050565b6000612bff8284612bc2565b915081905092915050565b6000612c1582611dc4565b9150612c2083611dc4565b9250828203905081811115612c3857612c3761243a565b5b92915050565b6000606082019050612c536000830186611f37565b8181036020830152612c658185611efe565b9050612c746040830184611f37565b949350505050565b6000819050919050565b612c97612c9282611dc4565b612c7c565b82525050565b60008160601b9050919050565b6000612cb582612c9d565b9050919050565b6000612cc782612caa565b9050919050565b612cdf612cda82611d86565b612cbc565b82525050565b6000612cf18286612c86565b602082019150612d018285612cce565b601482019150612d118284612c86565b602082019150819050949350505050565b6000612d2d82611f65565b9150612d3883611f65565b9250828201905061ffff811115612d5257612d5161243a565b5b92915050565b7f4e487b7100000000000000000000000000000000000000000000000000000000600052600160045260246000fd5b6000612d9282611f46565b9150612d9d83611f46565b9250828201905063ffffffff811115612db957612db861243a565b5b9291505056fea2646970667358221220867a0b1e8d6172b0b2b638cd6a58f4ddc8a58f7d487e53b9a91fa0349ddb439e64736f6c63430008130033",
  "immutableReferences": {},
  "source": "// SPDX-License-Identifier: MIT\npragma solidity ^0.8.19;\n\nimport \"./ZombieAttack.sol\";\nimport \"./IERC721.sol\";\nimport \"./safemath.sol\";\n\n/// @title Contrato para gestionar la propiedad de los zombies\n/// @author mfy\n/// @notice Este contrato implementa ERC721 y aade funcionalidades para transferir zombies\n/// @dev Este contrato es una extensin de ZombieAttack y de IERC721\n\ncontract ZombieOwnership is ZombieAttack, IERC721 {\n\n    using SafeMath for uint256;\n    using SafeMath32 for uint32;\n    using SafeMath16 for uint16;\n\n    mapping (uint256 => address) zombieApprovals;\n\n    function balanceOf(address _owner) external view override returns (uint256) {\n        return ownerZombieCount[_owner];\n    }\n\n    function ownerOf(uint256 _tokenId) external view override returns (address) {\n        return zombieToOwner[_tokenId];\n    }\n\n    function transferFrom(address _from, address _to, uint256 _tokenId) external payable override {\n        require(zombieToOwner[_tokenId] == msg.sender || zombieApprovals[_tokenId] == msg.sender, \"Not authorized to transfer this token\");\n        require(zombieToOwner[_tokenId] == _from, \"From address does not own this token\");\n        require(_to != address(0), \"Cannot transfer to the zero address\");\n\n        _transfer(_from, _to, _tokenId);\n    }\n\n    function approve(address _approved, uint256 _tokenId) external payable override onlyOwnerOf(_tokenId) {\n        require(zombieToOwner[_tokenId] == msg.sender, \"Not authorized to approve\");\n        zombieApprovals[_tokenId] = _approved;\n        emit Approval(msg.sender, _approved, _tokenId);\n    }\n\n    function _transfer(address _from, address _to, uint256 _tokenId) internal {\n        ownerZombieCount[_to] = ownerZombieCount[_to].add(1);\n        ownerZombieCount[_from] = ownerZombieCount[_from].sub(1);\n        zombieToOwner[_tokenId] = _to;\n        emit Transfer(_from, _to, _tokenId);\n    }\n\n    function transfer(address _to, uint256 _tokenId) external payable {\n    // 2. Agrega la declaracion adecuada aqui\n    // 3. Llama a _transfer\n  }\n\n}\n\n\n",
  "sourcePath": "/Users/manu/dev/crypto/cryptozombies/truffle/contracts-cryptozombies/contracts/ZombieOwnership.sol",
  "compiler": {
    "name": "solc",
    "version": "0.8.19+commit.7dd6d404.Emscripten.clang"
  },
  "schemaVersion": "3.4.16",
  "updatedAt": "2024-06-19T21:43:38.776Z",
  "networkType": "ethereum",
  "devdoc": {
    "author": "mfy",
    "details": "Este contrato es una extensin de ZombieAttack y de IERC721",
    "kind": "dev",
    "methods": {
      "isOwner()": {
        "returns": {
          "_0": "true if `msg.sender` is the owner of the contract."
        }
      },
      "owner()": {
        "returns": {
          "_0": "the address of the owner."
        }
      },
      "renounceOwnership()": {
        "details": "Allows the current owner to relinquish control of the contract."
      },
      "transferOwnership(address)": {
        "details": "Allows the current owner to transfer control of the contract to a newOwner.",
        "params": {
          "newOwner": "The address to transfer ownership to."
        }
      }
    },
    "title": "Contrato para gestionar la propiedad de los zombies",
    "version": 1
  },
  "userdoc": {
    "kind": "user",
    "methods": {
      "renounceOwnership()": {
        "notice": "Renouncing to ownership will leave the contract without an owner. It will not be possible to call the functions with the `onlyOwner` modifier anymore."
      }
    },
    "notice": "Este contrato implementa ERC721 y aade funcionalidades para transferir zombies",
    "version": 1
  }
}